ttecfile20170117
D01141031162117080101Maisarah Binti Zulkifli                 480924085252,3      564212501111        00123456543PBB0233 myboutique@hotmail.com     Loan repayment             000000000000300000001MT200220170102202008092015SE12324234A12345/001/12       
D01141031162117080201Maisarah Binti Zulkifli                 480924085252,3      564212501111        00123456543PBB0233 myboutique@hotmail.com     Loan repayment             000000000000300000001MT200220170102202008092015SE12324234A12345/001/12       
D01141031162117080301Maisarah Binti Zulkifli                 480924085252,3      564212501111        00123456543PBB0233 myboutique@hotmail.com     Loan repayment             000000000000300000001MT200220170102202008092015SE12324234A12345/001/12       
D01141031162117080401Maisarah Binti Zulkifli                 480924085252,3      564212501111        00123456543PBB0233 myboutique@hotmail.com     Loan repayment             000000000000300000001MT200220170102202008092015SE12324234A12345/001/12       
D01141031162117080501Maisarah Binti Zulkifli                 480924085252,3      564212501111        00123456543PBB0233 myboutique@hotmail.com     Loan repayment             000000000000300000001MT200220170102202008092015SE12324234A12345/001/12       
D01141031162117080601Maisarah Binti Zulkifli                 480924085252,3      564212501111        00123456543PBB0233 myboutique@hotmail.com     Loan repayment             000000000000300000001MT200220170102202008092015SE12324234A12345/001/12       
D01141031162117080701Maisarah Binti Zulkifli                 480924085252,3      564212501111        00123456543PBB0233 myboutique@hotmail.com     Loan repayment             000000000000300000001MT200220170102202008092015SE12324234A12345/001/12       
D01141031162117080801Maisarah Binti Zulkifli                 480924085252,3      564212501111        00123456543PBB0233 myboutique@hotmail.com     Loan repayment             000000000000300000001MT200220170102202008092015SE12324234A12345/001/12       
D01141031162117080901Maisarah Binti Zulkifli                 480924085252,3      564212501111        00123456543PBB0233 myboutique@hotmail.com     Loan repayment             000000000000300000001MT200220170102202008092015SE12324234A12345/001/12       
D01141031162117081101Maisarah Binti Zulkifli                 480924085252,3      564212501111        00123456543PBB0233 myboutique@hotmail.com     Loan repayment             000000000000300000001MT200220170102202008092015SE12324234A12345/001/12       
D01141031162117082101Maisarah Binti Zulkifli                 480924085252,3      564212501111        00123456543PBB0233 myboutique@hotmail.com     Loan repayment             000000000000300000001MT200220170102202008092015SE12324234A12345/001/12       
D01141031162117083101Maisarah Binti Zulkifli                 480924085252,3      564212501111        00123456543PBB0233 myboutique@hotmail.com     Loan repayment             000000000000300000001MT200220170102202008092015SE12324234A12345/001/12       
D01141031162117084101Maisarah Binti Zulkifli                 480924085252,3      564212501111        00123456543PBB0233 myboutique@hotmail.com     Loan repayment             000000000000300000001MT200220170102202008092015SE12324234A12345/001/12       
D01141031162117085101Maisarah Binti Zulkifli                 480924085252,3      564212501111        00123456543PBB0233 myboutique@hotmail.com     Loan repayment             000000000000300000001MT200220170102202008092015SE12324234A12345/001/12       
D01141031162117086101Maisarah Binti Zulkifli                 480924085252,3      564212501111        00123456543PBB0233 myboutique@hotmail.com     Loan repayment             000000000000300000001MT200220170102202008092015SE12324234A12345/001/12       
D01141031162117087101Maisarah Binti Zulkifli                 480924085252,3      564212501111        00123456543PBB0233 myboutique@hotmail.com     Loan repayment             000000000000300000001MT200220170102202008092015SE12324234A12345/001/12       
D01141031162117088101Maisarah Binti Zulkifli                 480924085252,3      564212501111        00123456543PBB0233 myboutique@hotmail.com     Loan repayment             000000000000300000001MT200220170102202008092015SE12324234A12345/001/12       
D01141031162117089101Maisarah Binti Zulkifli                 480924085252,3      564212501111        00123456543PBB0233 myboutique@hotmail.com     Loan repayment             000000000000300000001MT200220170102202008092015SE12324234A12345/001/12       
D01141031162117010101Maisarah Binti Zulkifli                 480924085252,3      564212501111        00123456543PBB0233 myboutique@hotmail.com     Loan repayment             000000000000300000001MT200220170102202008092015SE12324234A12345/001/12       
D01141031162117020101Maisarah Binti Zulkifli                 480924085252,3      564212501111        00123456543PBB0233 myboutique@hotmail.com     Loan repayment             000000000000300000001MT200220170102202008092015SE12324234A12345/001/12       
D01141031162117030101Maisarah Binti Zulkifli                 480924085252,3      564212501111        00123456543PBB0233 myboutique@hotmail.com     Loan repayment             000000000000300000001MT200220170102202008092015SE12324234A12345/001/12       
D01141031162117040101Maisarah Binti Zulkifli                 480924085252,3      564212501111        00123456543PBB0233 myboutique@hotmail.com     Loan repayment             000000000000300000001MT200220170102202008092015SE12324234A12345/001/12       
D01141031162117050101Maisarah Binti Zulkifli                 480924085252,3      564212501111        00123456543PBB0233 myboutique@hotmail.com     Loan repayment             000000000000300000001MT200220170102202008092015SE12324234A12345/001/12       
D01141031162117060101Maisarah Binti Zulkifli                 480924085252,3      564212501111        00123456543PBB0233 myboutique@hotmail.com     Loan repayment             000000000000300000001MT200220170102202008092015SE12324234A12345/001/12       
D01141031162117070101Maisarah Binti Zulkifli                 480924085252,3      564212501111        00123456543PBB0233 myboutique@hotmail.com     Loan repayment             000000000000300000001MT200220170102202008092015SE12324234A12345/001/12       
D01141031162117080111Maisarah Binti Zulkifli                 480924085252,3      564212501111        00123456543PBB0233 myboutique@hotmail.com     Loan repayment             000000000000300000001MT200220170102202008092015SE12324234A12345/001/12       
D01141031162117090101Maisarah Binti Zulkifli                 480924085252,3      564212501111        00123456543PBB0233 myboutique@hotmail.com     Loan repayment             000000000000300000001MT200220170102202008092015SE12324234A12345/001/12       
D01141031162117180101Maisarah Binti Zulkifli                 480924085252,3      564212501111        00123456543PBB0233 myboutique@hotmail.com     Loan repayment             000000000000300000001MT200220170102202008092015SE12324234A12345/001/12       
D01141031162117280101Maisarah Binti Zulkifli                 480924085252,3      564212501111        00123456543PBB0233 myboutique@hotmail.com     Loan repayment             000000000000300000001MT200220170102202008092015SE12324234A12345/001/12       
D01141031162117380101Maisarah Binti Zulkifli                 480924085252,3      564212501111        00123456543PBB0233 myboutique@hotmail.com     Loan repayment             000000000000300000001MT200220170102202008092015SE12324234A12345/001/12       
D01141031162117480101Maisarah Binti Zulkifli                 480924085252,3      564212501111        00123456543PBB0233 myboutique@hotmail.com     Loan repayment             000000000000300000001MT200220170102202008092015SE12324234A12345/001/12       
D01141031162117580101Maisarah Binti Zulkifli                 480924085252,3      564212501111        00123456543PBB0233 myboutique@hotmail.com     Loan repayment             000000000000300000001MT200220170102202008092015SE12324234A12345/001/12       
D01141031162117680101Maisarah Binti Zulkifli                 480924085252,3      564212501111        00123456543PBB0233 myboutique@hotmail.com     Loan repayment             000000000000300000001MT200220170102202008092015SE12324234A12345/001/12       
D01141031162117780101Maisarah Binti Zulkifli                 480924085252,3      564212501111        00123456543PBB0233 myboutique@hotmail.com     Loan repayment             000000000000300000001MT200220170102202008092015SE12324234A12345/001/12       
D01141031162117880101Maisarah Binti Zulkifli                 480924085252,3      564212501111        00123456543PBB0233 myboutique@hotmail.com     Loan repayment             000000000000300000001MT200220170102202008092015SE12324234A12345/001/12       
D01141031162117980101Maisarah Binti Zulkifli                 480924085252,3      564212501111        00123456543PBB0233 myboutique@hotmail.com     Loan repayment             000000000000300000001MT200220170102202008092015SE12324234A12345/001/12       
D01141031162111080101Maisarah Binti Zulkifli                 480924085252,3      564212501111        00123456543PBB0233 myboutique@hotmail.com     Loan repayment             000000000000300000001MT200220170102202008092015SE12324234A12345/001/12       
D01141031162112080101Maisarah Binti Zulkifli                 480924085252,3      564212501111        00123456543PBB0233 myboutique@hotmail.com     Loan repayment             000000000000300000001MT200220170102202008092015SE12324234A12345/001/12       
D01141031162113080101Maisarah Binti Zulkifli                 480924085252,3      564212501111        00123456543PBB0233 myboutique@hotmail.com     Loan repayment             000000000000300000001MT200220170102202008092015SE12324234A12345/001/12       
D01141031162114080101Maisarah Binti Zulkifli                 480924085252,3      564212501111        00123456543PBB0233 myboutique@hotmail.com     Loan repayment             000000000000300000001MT200220170102202008092015SE12324234A12345/001/12       
D01141031162115080101Maisarah Binti Zulkifli                 480924085252,3      564212501111        00123456543PBB0233 myboutique@hotmail.com     Loan repayment             000000000000300000001MT200220170102202008092015SE12324234A12345/001/12       
D01141031162116080101Maisarah Binti Zulkifli                 480924085252,3      564212501111        00123456543PBB0233 myboutique@hotmail.com     Loan repayment             000000000000300000001MT200220170102202008092015SE12324234A12345/001/12       
D01141031162117080101Maisarah Binti Zulkifli                 480924085252,3      564212501111        00123456543PBB0233 myboutique@hotmail.com     Loan repayment             000000000000300000001MT200220170102202008092015SE12324234A12345/001/12       
D01141031162118080101Maisarah Binti Zulkifli                 480924085252,3      564212501111        00123456543PBB0233 myboutique@hotmail.com     Loan repayment             000000000000300000001MT200220170102202008092015SE12324234A12345/001/12       
D01141031162119080101Maisarah Binti Zulkifli                 480924085252,3      564212501111        00123456543PBB0233 myboutique@hotmail.com     Loan repayment             000000000000300000001MT200220170102202008092015SE12324234A12345/001/12       
D01141031162127080101Maisarah Binti Zulkifli                 480924085252,3      564212501111        00123456543PBB0233 myboutique@hotmail.com     Loan repayment             000000000000300000001MT200220170102202008092015SE12324234A12345/001/12       
D01141031162137080101Maisarah Binti Zulkifli                 480924085252,3      564212501111        00123456543PBB0233 myboutique@hotmail.com     Loan repayment             000000000000300000001MT200220170102202008092015SE12324234A12345/001/12       
D01141031162147080101Maisarah Binti Zulkifli                 480924085252,3      564212501111        00123456543PBB0233 myboutique@hotmail.com     Loan repayment             000000000000300000001MT200220170102202008092015SE12324234A12345/001/12       
D01141031162157080101Maisarah Binti Zulkifli                 480924085252,3      564212501111        00123456543PBB0233 myboutique@hotmail.com     Loan repayment             000000000000300000001MT200220170102202008092015SE12324234A12345/001/12       
D01141031162167080101Maisarah Binti Zulkifli                 480924085252,3      564212501111        00123456543PBB0233 myboutique@hotmail.com     Loan repayment             000000000000300000001MT200220170102202008092015SE12324234A12345/001/12       
T0000001B8NFL53RMCDD15C5B5AD647A274C106FF80FBDFE727F8000D456EB269355526D7B13F2AF1E2BB8A38530860C7D977706606CCE6324898B52B697266E7B50B2541788194BC52B8FC04E6C36B937F82DC06AF64BD99D3594496468538E92CB979E216929326B331B93B12222F226EF0C15482E50C1A5F9E72CF370DDADD43831AC5B7384FC97F66C97A9F04E75BB80642752E4CEB32DF3F5429809CA9DD9810FF4DC495CF0CCFD09BAA11EE689B6DB5AB3071EF57D2A30F4CFD0CF0AB38910AD97EC9B1B6B9A29113E58822B3FAF978670ED2A0B9DF37AC995FFDD9533893167D8AD5A96C456A8E324F9BCE5A8BBB5483D01AB6EBBB02E189C31E5CA0093CEF6D
