Htecfile20170118
D01141031162117080101Maisarah Binti Zulkifli                 480924085252,3      564212501111        00123456543PBB0233 myboutique@hotmail.com     Loan repayment             000000000000300000001MT200220170102202008092015SE00000415A12345/001/12       
D01141031162117080101Maisarah Binti Zulkifli                 480924085252,3      564212501111        00123456543PBB0233 myboutique@hotmail.com     Loan repayment             000000000000300000001MT200220170102202008092015SE00000415A12345/001/12       
D01141031162117080101Maisarah Binti Zulkifli                 480924085252,3      564212501111        00123456543PBB0233 myboutique@hotmail.com     Loan repayment             000000000000300000001MT200220170102202008092015SE00000415A12345/001/12       
D01141031162117080101Maisarah Binti Zulkifli                 480924085252,3      564212501111        00123456543PBB0233 myboutique@hotmail.com     Loan repayment             000000000000300000001MT200220170102202008092015SE00000415A12345/001/12       
D01141031162117080101Maisarah Binti Zulkifli                 480924085252,3      564212501111        00123456543PBB0233 myboutique@hotmail.com     Loan repayment             000000000000300000001MT200220170102202008092015SE00000415A12345/001/12       
D01141031162117080101Maisarah Binti Zulkifli                 480924085252,3      564212501111        00123456543PBB0233 myboutique@hotmail.com     Loan repayment             000000000000300000001MT200220170102202008092015SE00000415A12345/001/12       
D01141031162117080101Maisarah Binti Zulkifli                 480924085252,3      564212501111        00123456543PBB0233 myboutique@hotmail.com     Loan repayment             000000000000300000001MT200220170102202008092015SE00000415A12345/001/12       
D01141031162117080101Maisarah Binti Zulkifli                 480924085252,3      564212501111        00123456543PBB0233 myboutique@hotmail.com     Loan repayment             000000000000300000001MT200220170102202008092015SE00000415A12345/001/12       
D01141031162117080101Maisarah Binti Zulkifli                 480924085252,3      564212501111        00123456543PBB0233 myboutique@hotmail.com     Loan repayment             000000000000300000001MT200220170102202008092015SE00000415A12345/001/12       
D01141031162117080101Maisarah Binti Zulkifli                 480924085252,3      564212501111        00123456543PBB0233 myboutique@hotmail.com     Loan repayment             000000000000300000001MT200220170102202008092015SE00000415A12345/001/12       
D01141031162117080101Maisarah Binti Zulkifli                 480924085252,3      564212501111        00123456543PBB0233 myboutique@hotmail.com     Loan repayment             000000000000300000001MT200220170102202008092015SE00000415A12345/001/12       
D01141031162117080101Maisarah Binti Zulkifli                 480924085252,3      564212501111        00123456543PBB0233 myboutique@hotmail.com     Loan repayment             000000000000300000001MT200220170102202008092015SE00000415A12345/001/12       
D01141031162117080101Maisarah Binti Zulkifli                 480924085252,3      564212501111        00123456543PBB0233 myboutique@hotmail.com     Loan repayment             000000000000300000001MT200220170102202008092015SE00000415A12345/001/12       
D01141031162117080101Maisarah Binti Zulkifli                 480924085252,3      564212501111        00123456543PBB0233 myboutique@hotmail.com     Loan repayment             000000000000300000001MT200220170102202008092015SE00000415A12345/001/12       
D01141031162117080101Maisarah Binti Zulkifli                 480924085252,3      564212501111        00123456543PBB0233 myboutique@hotmail.com     Loan repayment             000000000000300000001MT200220170102202008092015SE00000415A12345/001/12       
D01141031162117080101Maisarah Binti Zulkifli                 480924085252,3      564212501111        00123456543PBB0233 myboutique@hotmail.com     Loan repayment             000000000000300000001MT200220170102202008092015SE00000415A12345/001/12       
D01141031162117080101Maisarah Binti Zulkifli                 480924085252,3      564212501111        00123456543PBB0233 myboutique@hotmail.com     Loan repayment             000000000000300000001MT200220170102202008092015SE00000415A12345/001/12       
D01141031162117080101Maisarah Binti Zulkifli                 480924085252,3      564212501111        00123456543PBB0233 myboutique@hotmail.com     Loan repayment             000000000000300000001MT200220170102202008092015SE00000415A12345/001/12       
D01141031162117080101Maisarah Binti Zulkifli                 480924085252,3      564212501111        00123456543PBB0233 myboutique@hotmail.com     Loan repayment             000000000000300000001MT200220170102202008092015SE00000415A12345/001/12       
D01141031162117080101Maisarah Binti Zulkifli                 480924085252,3      564212501111        00123456543PBB0233 myboutique@hotmail.com     Loan repayment             000000000000300000001MT200220170102202008092015SE00000415A12345/001/12       
D01141031162117080101Maisarah Binti Zulkifli                 480924085252,3      564212501111        00123456543PBB0233 myboutique@hotmail.com     Loan repayment             000000000000300000001MT200220170102202008092015SE00000415A12345/001/12       
D01141031162117080101Maisarah Binti Zulkifli                 480924085252,3      564212501111        00123456543PBB0233 myboutique@hotmail.com     Loan repayment             000000000000300000001MT200220170102202008092015SE00000415A12345/001/12       
D01141031162117080101Maisarah Binti Zulkifli                 480924085252,3      564212501111        00123456543PBB0233 myboutique@hotmail.com     Loan repayment             000000000000300000001MT200220170102202008092015SE00000415A12345/001/12       
D01141031162117080101Maisarah Binti Zulkifli                 480924085252,3      564212501111        00123456543PBB0233 myboutique@hotmail.com     Loan repayment             000000000000300000001MT200220170102202008092015SE00000415A12345/001/12       
D01141031162117080101Maisarah Binti Zulkifli                 480924085252,3      564212501111        00123456543PBB0233 myboutique@hotmail.com     Loan repayment             000000000000300000001MT200220170102202008092015SE00000415A12345/001/12       
D01141031162117080101Maisarah Binti Zulkifli                 480924085252,3      564212501111        00123456543PBB0233 myboutique@hotmail.com     Loan repayment             000000000000300000001MT200220170102202008092015SE00000415A12345/001/12       
D01141031162117080101Maisarah Binti Zulkifli                 480924085252,3      564212501111        00123456543PBB0233 myboutique@hotmail.com     Loan repayment             000000000000300000001MT200220170102202008092015SE00000415A12345/001/12       
D01141031162117080101Maisarah Binti Zulkifli                 480924085252,3      564212501111        00123456543PBB0233 myboutique@hotmail.com     Loan repayment             000000000000300000001MT200220170102202008092015SE00000415A12345/001/12       
D01141031162117080101Maisarah Binti Zulkifli                 480924085252,3      564212501111        00123456543PBB0233 myboutique@hotmail.com     Loan repayment             000000000000300000001MT200220170102202008092015SE00000415A12345/001/12       
D01141031162117080101Maisarah Binti Zulkifli                 480924085252,3      564212501111        00123456543PBB0233 myboutique@hotmail.com     Loan repayment             000000000000300000001MT200220170102202008092015SE00000415A12345/001/12       
D01141031162117080101Maisarah Binti Zulkifli                 480924085252,3      564212501111        00123456543PBB0233 myboutique@hotmail.com     Loan repayment             000000000000300000001MT200220170102202008092015SE00000415A12345/001/12       
D01141031162117080101Maisarah Binti Zulkifli                 480924085252,3      564212501111        00123456543PBB0233 myboutique@hotmail.com     Loan repayment             000000000000300000001MT200220170102202008092015SE00000415A12345/001/12       
D01141031162117080101Maisarah Binti Zulkifli                 480924085252,3      564212501111        00123456543PBB0233 myboutique@hotmail.com     Loan repayment             000000000000300000001MT200220170102202008092015SE00000415A12345/001/12       
D01141031162117080101Maisarah Binti Zulkifli                 480924085252,3      564212501111        00123456543PBB0233 myboutique@hotmail.com     Loan repayment             000000000000300000001MT200220170102202008092015SE00000415A12345/001/12       
D01141031162117080101Maisarah Binti Zulkifli                 480924085252,3      564212501111        00123456543PBB0233 myboutique@hotmail.com     Loan repayment             000000000000300000001MT200220170102202008092015SE00000415A12345/001/12       
D01141031162117080101Maisarah Binti Zulkifli                 480924085252,3      564212501111        00123456543PBB0233 myboutique@hotmail.com     Loan repayment             000000000000300000001MT200220170102202008092015SE00000415A12345/001/12       
D01141031162117080101Maisarah Binti Zulkifli                 480924085252,3      564212501111        00123456543PBB0233 myboutique@hotmail.com     Loan repayment             000000000000300000001MT200220170102202008092015SE00000415A12345/001/12       
D01141031162117080101Maisarah Binti Zulkifli                 480924085252,3      564212501111        00123456543PBB0233 myboutique@hotmail.com     Loan repayment             000000000000300000001MT200220170102202008092015SE00000415A12345/001/12       
D01141031162117080101Maisarah Binti Zulkifli                 480924085252,3      564212501111        00123456543PBB0233 myboutique@hotmail.com     Loan repayment             000000000000300000001MT200220170102202008092015SE00000415A12345/001/12       
D01141031162117080101Maisarah Binti Zulkifli                 480924085252,3      564212501111        00123456543PBB0233 myboutique@hotmail.com     Loan repayment             000000000000300000001MT200220170102202008092015SE00000415A12345/001/12       
D01141031162117080101Maisarah Binti Zulkifli                 480924085252,3      564212501111        00123456543PBB0233 myboutique@hotmail.com     Loan repayment             000000000000300000001MT200220170102202008092015SE00000415A12345/001/12       
D01141031162117080101Maisarah Binti Zulkifli                 480924085252,3      564212501111        00123456543PBB0233 myboutique@hotmail.com     Loan repayment             000000000000300000001MT200220170102202008092015SE00000415A12345/001/12       
D01141031162117080101Maisarah Binti Zulkifli                 480924085252,3      564212501111        00123456543PBB0233 myboutique@hotmail.com     Loan repayment             000000000000300000001MT200220170102202008092015SE00000415A12345/001/12       
D01141031162117080101Maisarah Binti Zulkifli                 480924085252,3      564212501111        00123456543PBB0233 myboutique@hotmail.com     Loan repayment             000000000000300000001MT200220170102202008092015SE00000415A12345/001/12       
D01141031162117080101Maisarah Binti Zulkifli                 480924085252,3      564212501111        00123456543PBB0233 myboutique@hotmail.com     Loan repayment             000000000000300000001MT200220170102202008092015SE00000415A12345/001/12       
D01141031162117080101Maisarah Binti Zulkifli                 480924085252,3      564212501111        00123456543PBB0233 myboutique@hotmail.com     Loan repayment             000000000000300000001MT200220170102202008092015SE00000415A12345/001/12       
D01141031162117080101Maisarah Binti Zulkifli                 480924085252,3      564212501111        00123456543PBB0233 myboutique@hotmail.com     Loan repayment             000000000000300000001MT200220170102202008092015SE00000415A12345/001/12       
D01141031162117080101Maisarah Binti Zulkifli                 480924085252,3      564212501111        00123456543PBB0233 myboutique@hotmail.com     Loan repayment             000000000000300000001MT200220170102202008092015SE00000415A12345/001/12       
D01141031162117080101Maisarah Binti Zulkifli                 480924085252,3      564212501111        00123456543PBB0233 myboutique@hotmail.com     Loan repayment             000000000000300000001MT200220170102202008092015SE00000415A12345/001/12       
D01141031162117080101Maisarah Binti Zulkifli                 480924085252,3      564212501111        00123456543PBB0233 myboutique@hotmail.com     Loan repayment             000000000000300000001MT200220170102202008092015SE00000415A12345/001/12       
D01141031162117080101Maisarah Binti Zulkifli                 480924085252,3      564212501111        00123456543PBB0233 myboutique@hotmail.com     Loan repayment             000000000000300000001MT200220170102202008092015SE00000415A12345/001/12       
D01141031162117080101Maisarah Binti Zulkifli                 480924085252,3      564212501111        00123456543PBB0233 myboutique@hotmail.com     Loan repayment             000000000000300000001MT200220170102202008092015SE00000415A12345/001/12       
D01141031162117080101Maisarah Binti Zulkifli                 480924085252,3      564212501111        00123456543PBB0233 myboutique@hotmail.com     Loan repayment             000000000000300000001MT200220170102202008092015SE00000415A12345/001/12       
D01141031162117080101Maisarah Binti Zulkifli                 480924085252,3      564212501111        00123456543PBB0233 myboutique@hotmail.com     Loan repayment             000000000000300000001MT200220170102202008092015SE00000415A12345/001/12       
D01141031162117080101Maisarah Binti Zulkifli                 480924085252,3      564212501111        00123456543PBB0233 myboutique@hotmail.com     Loan repayment             000000000000300000001MT200220170102202008092015SE00000415A12345/001/12       
D01141031162117080101Maisarah Binti Zulkifli                 480924085252,3      564212501111        00123456543PBB0233 myboutique@hotmail.com     Loan repayment             000000000000300000001MT200220170102202008092015SE00000415A12345/001/12       
D01141031162117080101Maisarah Binti Zulkifli                 480924085252,3      564212501111        00123456543PBB0233 myboutique@hotmail.com     Loan repayment             000000000000300000001MT200220170102202008092015SE00000415A12345/001/12       
D01141031162117080101Maisarah Binti Zulkifli                 480924085252,3      564212501111        00123456543PBB0233 myboutique@hotmail.com     Loan repayment             000000000000300000001MT200220170102202008092015SE00000415A12345/001/12       
D01141031162117080101Maisarah Binti Zulkifli                 480924085252,3      564212501111        00123456543PBB0233 myboutique@hotmail.com     Loan repayment             000000000000300000001MT200220170102202008092015SE00000415A12345/001/12       
D01141031162117080101Maisarah Binti Zulkifli                 480924085252,3      564212501111        00123456543PBB0233 myboutique@hotmail.com     Loan repayment             000000000000300000001MT200220170102202008092015SE00000415A12345/001/12       
D01141031162117080101Maisarah Binti Zulkifli                 480924085252,3      564212501111        00123456543PBB0233 myboutique@hotmail.com     Loan repayment             000000000000300000001MT200220170102202008092015SE00000415A12345/001/12       
D01141031162117080101Maisarah Binti Zulkifli                 480924085252,3      564212501111        00123456543PBB0233 myboutique@hotmail.com     Loan repayment             000000000000300000001MT200220170102202008092015SE00000415A12345/001/12       
D01141031162117080101Maisarah Binti Zulkifli                 480924085252,3      564212501111        00123456543PBB0233 myboutique@hotmail.com     Loan repayment             000000000000300000001MT200220170102202008092015SE00000415A12345/001/12       
D01141031162117080101Maisarah Binti Zulkifli                 480924085252,3      564212501111        00123456543PBB0233 myboutique@hotmail.com     Loan repayment             000000000000300000001MT200220170102202008092015SE00000415A12345/001/12       
D01141031162117080101Maisarah Binti Zulkifli                 480924085252,3      564212501111        00123456543PBB0233 myboutique@hotmail.com     Loan repayment             000000000000300000001MT200220170102202008092015SE00000415A12345/001/12       
D01141031162117080101Maisarah Binti Zulkifli                 480924085252,3      564212501111        00123456543PBB0233 myboutique@hotmail.com     Loan repayment             000000000000300000001MT200220170102202008092015SE00000415A12345/001/12       
D01141031162117080101Maisarah Binti Zulkifli                 480924085252,3      564212501111        00123456543PBB0233 myboutique@hotmail.com     Loan repayment             000000000000300000001MT200220170102202008092015SE00000415A12345/001/12       
D01141031162117080101Maisarah Binti Zulkifli                 480924085252,3      564212501111        00123456543PBB0233 myboutique@hotmail.com     Loan repayment             000000000000300000001MT200220170102202008092015SE00000415A12345/001/12       
D01141031162117080101Maisarah Binti Zulkifli                 480924085252,3      564212501111        00123456543PBB0233 myboutique@hotmail.com     Loan repayment             000000000000300000001MT200220170102202008092015SE00000415A12345/001/12       
D01141031162117080101Maisarah Binti Zulkifli                 480924085252,3      564212501111        00123456543PBB0233 myboutique@hotmail.com     Loan repayment             000000000000300000001MT200220170102202008092015SE00000415A12345/001/12       
D01141031162117080101Maisarah Binti Zulkifli                 480924085252,3      564212501111        00123456543PBB0233 myboutique@hotmail.com     Loan repayment             000000000000300000001MT200220170102202008092015SE00000415A12345/001/12       
D01141031162117080101Maisarah Binti Zulkifli                 480924085252,3      564212501111        00123456543PBB0233 myboutique@hotmail.com     Loan repayment             000000000000300000001MT200220170102202008092015SE00000415A12345/001/12       
D01141031162117080101Maisarah Binti Zulkifli                 480924085252,3      564212501111        00123456543PBB0233 myboutique@hotmail.com     Loan repayment             000000000000300000001MT200220170102202008092015SE00000415A12345/001/12       
D01141031162117080101Maisarah Binti Zulkifli                 480924085252,3      564212501111        00123456543PBB0233 myboutique@hotmail.com     Loan repayment             000000000000300000001MT200220170102202008092015SE00000415A12345/001/12       
D01141031162117080101Maisarah Binti Zulkifli                 480924085252,3      564212501111        00123456543PBB0233 myboutique@hotmail.com     Loan repayment             000000000000300000001MT200220170102202008092015SE00000415A12345/001/12       
D01141031162117080101Maisarah Binti Zulkifli                 480924085252,3      564212501111        00123456543PBB0233 myboutique@hotmail.com     Loan repayment             000000000000300000001MT200220170102202008092015SE00000415A12345/001/12       
D01141031162117080101Maisarah Binti Zulkifli                 480924085252,3      564212501111        00123456543PBB0233 myboutique@hotmail.com     Loan repayment             000000000000300000001MT200220170102202008092015SE00000415A12345/001/12       
D01141031162117080101Maisarah Binti Zulkifli                 480924085252,3      564212501111        00123456543PBB0233 myboutique@hotmail.com     Loan repayment             000000000000300000001MT200220170102202008092015SE00000415A12345/001/12       
D01141031162117080101Maisarah Binti Zulkifli                 480924085252,3      564212501111        00123456543PBB0233 myboutique@hotmail.com     Loan repayment             000000000000300000001MT200220170102202008092015SE00000415A12345/001/12       
D01141031162117080101Maisarah Binti Zulkifli                 480924085252,3      564212501111        00123456543PBB0233 myboutique@hotmail.com     Loan repayment             000000000000300000001MT200220170102202008092015SE00000415A12345/001/12       
D01141031162117080101Maisarah Binti Zulkifli                 480924085252,3      564212501111        00123456543PBB0233 myboutique@hotmail.com     Loan repayment             000000000000300000001MT200220170102202008092015SE00000415A12345/001/12       
D01141031162117080101Maisarah Binti Zulkifli                 480924085252,3      564212501111        00123456543PBB0233 myboutique@hotmail.com     Loan repayment             000000000000300000001MT200220170102202008092015SE00000415A12345/001/12       
D01141031162117080101Maisarah Binti Zulkifli                 480924085252,3      564212501111        00123456543PBB0233 myboutique@hotmail.com     Loan repayment             000000000000300000001MT200220170102202008092015SE00000415A12345/001/12       
D01141031162117080101Maisarah Binti Zulkifli                 480924085252,3      564212501111        00123456543PBB0233 myboutique@hotmail.com     Loan repayment             000000000000300000001MT200220170102202008092015SE00000415A12345/001/12       
D01141031162117080101Maisarah Binti Zulkifli                 480924085252,3      564212501111        00123456543PBB0233 myboutique@hotmail.com     Loan repayment             000000000000300000001MT200220170102202008092015SE00000415A12345/001/12       
D01141031162117080101Maisarah Binti Zulkifli                 480924085252,3      564212501111        00123456543PBB0233 myboutique@hotmail.com     Loan repayment             000000000000300000001MT200220170102202008092015SE00000415A12345/001/12       
D01141031162117080101Maisarah Binti Zulkifli                 480924085252,3      564212501111        00123456543PBB0233 myboutique@hotmail.com     Loan repayment             000000000000300000001MT200220170102202008092015SE00000415A12345/001/12       
D01141031162117080101Maisarah Binti Zulkifli                 480924085252,3      564212501111        00123456543PBB0233 myboutique@hotmail.com     Loan repayment             000000000000300000001MT200220170102202008092015SE00000415A12345/001/12       
D01141031162117080101Maisarah Binti Zulkifli                 480924085252,3      564212501111        00123456543PBB0233 myboutique@hotmail.com     Loan repayment             000000000000300000001MT200220170102202008092015SE00000415A12345/001/12       
D01141031162117080101Maisarah Binti Zulkifli                 480924085252,3      564212501111        00123456543PBB0233 myboutique@hotmail.com     Loan repayment             000000000000300000001MT200220170102202008092015SE00000415A12345/001/12       
D01141031162117080101Maisarah Binti Zulkifli                 480924085252,3      564212501111        00123456543PBB0233 myboutique@hotmail.com     Loan repayment             000000000000300000001MT200220170102202008092015SE00000415A12345/001/12       
D01141031162117080101Maisarah Binti Zulkifli                 480924085252,3      564212501111        00123456543PBB0233 myboutique@hotmail.com     Loan repayment             000000000000300000001MT200220170102202008092015SE00000415A12345/001/12       
D01141031162117080101Maisarah Binti Zulkifli                 480924085252,3      564212501111        00123456543PBB0233 myboutique@hotmail.com     Loan repayment             000000000000300000001MT200220170102202008092015SE00000415A12345/001/12       
D01141031162117080101Maisarah Binti Zulkifli                 480924085252,3      564212501111        00123456543PBB0233 myboutique@hotmail.com     Loan repayment             000000000000300000001MT200220170102202008092015SE00000415A12345/001/12       
D01141031162117080101Maisarah Binti Zulkifli                 480924085252,3      564212501111        00123456543PBB0233 myboutique@hotmail.com     Loan repayment             000000000000300000001MT200220170102202008092015SE00000415A12345/001/12       
D01141031162117080101Maisarah Binti Zulkifli                 480924085252,3      564212501111        00123456543PBB0233 myboutique@hotmail.com     Loan repayment             000000000000300000001MT200220170102202008092015SE00000415A12345/001/12       
D01141031162117080101Maisarah Binti Zulkifli                 480924085252,3      564212501111        00123456543PBB0233 myboutique@hotmail.com     Loan repayment             000000000000300000001MT200220170102202008092015SE00000415A12345/001/12       
D01141031162117080101Maisarah Binti Zulkifli                 480924085252,3      564212501111        00123456543PBB0233 myboutique@hotmail.com     Loan repayment             000000000000300000001MT200220170102202008092015SE00000415A12345/001/12       
D01141031162117080101Maisarah Binti Zulkifli                 480924085252,3      564212501111        00123456543PBB0233 myboutique@hotmail.com     Loan repayment             000000000000300000001MT200220170102202008092015SE00000415A12345/001/12       
D01141031162117080101Maisarah Binti Zulkifli                 480924085252,3      564212501111        00123456543PBB0233 myboutique@hotmail.com     Loan repayment             000000000000300000001MT200220170102202008092015SE00000415A12345/001/12       
D01141031162117080101Maisarah Binti Zulkifli                 480924085252,3      564212501111        00123456543PBB0233 myboutique@hotmail.com     Loan repayment             000000000000300000001MT200220170102202008092015SE00000415A12345/001/12       
D01141031162117080101Maisarah Binti Zulkifli                 480924085252,3      564212501111        00123456543PBB0233 myboutique@hotmail.com     Loan repayment             000000000000300000001MT200220170102202008092015SE00000415A12345/001/12       
D01141031162117080101Maisarah Binti Zulkifli                 480924085252,3      564212501111        00123456543PBB0233 myboutique@hotmail.com     Loan repayment             000000000000300000001MT200220170102202008092015SE00000415A12345/001/12       
D01141031162117080101Maisarah Binti Zulkifli                 480924085252,3      564212501111        00123456543PBB0233 myboutique@hotmail.com     Loan repayment             000000000000300000001MT200220170102202008092015SE00000415A12345/001/12       
D01141031162117080101Maisarah Binti Zulkifli                 480924085252,3      564212501111        00123456543PBB0233 myboutique@hotmail.com     Loan repayment             000000000000300000001MT200220170102202008092015SE00000415A12345/001/12       
D01141031162117080101Maisarah Binti Zulkifli                 480924085252,3      564212501111        00123456543PBB0233 myboutique@hotmail.com     Loan repayment             000000000000300000001MT200220170102202008092015SE00000415A12345/001/12       
D01141031162117080101Maisarah Binti Zulkifli                 480924085252,3      564212501111        00123456543PBB0233 myboutique@hotmail.com     Loan repayment             000000000000300000001MT200220170102202008092015SE00000415A12345/001/12       
D01141031162117080101Maisarah Binti Zulkifli                 480924085252,3      564212501111        00123456543PBB0233 myboutique@hotmail.com     Loan repayment             000000000000300000001MT200220170102202008092015SE00000415A12345/001/12       
D01141031162117080101Maisarah Binti Zulkifli                 480924085252,3      564212501111        00123456543PBB0233 myboutique@hotmail.com     Loan repayment             000000000000300000001MT200220170102202008092015SE00000415A12345/001/12       
D01141031162117080101Maisarah Binti Zulkifli                 480924085252,3      564212501111        00123456543PBB0233 myboutique@hotmail.com     Loan repayment             000000000000300000001MT200220170102202008092015SE00000415A12345/001/12       
D01141031162117080101Maisarah Binti Zulkifli                 480924085252,3      564212501111        00123456543PBB0233 myboutique@hotmail.com     Loan repayment             000000000000300000001MT200220170102202008092015SE00000415A12345/001/12       
D01141031162117080101Maisarah Binti Zulkifli                 480924085252,3      564212501111        00123456543PBB0233 myboutique@hotmail.com     Loan repayment             000000000000300000001MT200220170102202008092015SE00000415A12345/001/12       
D01141031162117080101Maisarah Binti Zulkifli                 480924085252,3      564212501111        00123456543PBB0233 myboutique@hotmail.com     Loan repayment             000000000000300000001MT200220170102202008092015SE00000415A12345/001/12       
D01141031162117080101Maisarah Binti Zulkifli                 480924085252,3      564212501111        00123456543PBB0233 myboutique@hotmail.com     Loan repayment             000000000000300000001MT200220170102202008092015SE00000415A12345/001/12       
D01141031162117080101Maisarah Binti Zulkifli                 480924085252,3      564212501111        00123456543PBB0233 myboutique@hotmail.com     Loan repayment             000000000000300000001MT200220170102202008092015SE00000415A12345/001/12       
D01141031162117080101Maisarah Binti Zulkifli                 480924085252,3      564212501111        00123456543PBB0233 myboutique@hotmail.com     Loan repayment             000000000000300000001MT200220170102202008092015SE00000415A12345/001/12       
D01141031162117080101Maisarah Binti Zulkifli                 480924085252,3      564212501111        00123456543PBB0233 myboutique@hotmail.com     Loan repayment             000000000000300000001MT200220170102202008092015SE00000415A12345/001/12       
D01141031162117080101Maisarah Binti Zulkifli                 480924085252,3      564212501111        00123456543PBB0233 myboutique@hotmail.com     Loan repayment             000000000000300000001MT200220170102202008092015SE00000415A12345/001/12       
D01141031162117080101Maisarah Binti Zulkifli                 480924085252,3      564212501111        00123456543PBB0233 myboutique@hotmail.com     Loan repayment             000000000000300000001MT200220170102202008092015SE00000415A12345/001/12       
D01141031162117080101Maisarah Binti Zulkifli                 480924085252,3      564212501111        00123456543PBB0233 myboutique@hotmail.com     Loan repayment             000000000000300000001MT200220170102202008092015SE00000415A12345/001/12       
D01141031162117080101Maisarah Binti Zulkifli                 480924085252,3      564212501111        00123456543PBB0233 myboutique@hotmail.com     Loan repayment             000000000000300000001MT200220170102202008092015SE00000415A12345/001/12       
D01141031162117080101Maisarah Binti Zulkifli                 480924085252,3      564212501111        00123456543PBB0233 myboutique@hotmail.com     Loan repayment             000000000000300000001MT200220170102202008092015SE00000415A12345/001/12       
D01141031162117080101Maisarah Binti Zulkifli                 480924085252,3      564212501111        00123456543PBB0233 myboutique@hotmail.com     Loan repayment             000000000000300000001MT200220170102202008092015SE00000415A12345/001/12       
D01141031162117080101Maisarah Binti Zulkifli                 480924085252,3      564212501111        00123456543PBB0233 myboutique@hotmail.com     Loan repayment             000000000000300000001MT200220170102202008092015SE00000415A12345/001/12       
D01141031162117080101Maisarah Binti Zulkifli                 480924085252,3      564212501111        00123456543PBB0233 myboutique@hotmail.com     Loan repayment             000000000000300000001MT200220170102202008092015SE00000415A12345/001/12       
D01141031162117080101Maisarah Binti Zulkifli                 480924085252,3      564212501111        00123456543PBB0233 myboutique@hotmail.com     Loan repayment             000000000000300000001MT200220170102202008092015SE00000415A12345/001/12       
D01141031162117080101Maisarah Binti Zulkifli                 480924085252,3      564212501111        00123456543PBB0233 myboutique@hotmail.com     Loan repayment             000000000000300000001MT200220170102202008092015SE00000415A12345/001/12       
D01141031162117080101Maisarah Binti Zulkifli                 480924085252,3      564212501111        00123456543PBB0233 myboutique@hotmail.com     Loan repayment             000000000000300000001MT200220170102202008092015SE00000415A12345/001/12       
D01141031162117080101Maisarah Binti Zulkifli                 480924085252,3      564212501111        00123456543PBB0233 myboutique@hotmail.com     Loan repayment             000000000000300000001MT200220170102202008092015SE00000415A12345/001/12       
D01141031162117080101Maisarah Binti Zulkifli                 480924085252,3      564212501111        00123456543PBB0233 myboutique@hotmail.com     Loan repayment             000000000000300000001MT200220170102202008092015SE00000415A12345/001/12       
D01141031162117080101Maisarah Binti Zulkifli                 480924085252,3      564212501111        00123456543PBB0233 myboutique@hotmail.com     Loan repayment             000000000000300000001MT200220170102202008092015SE00000415A12345/001/12       
D01141031162117080101Maisarah Binti Zulkifli                 480924085252,3      564212501111        00123456543PBB0233 myboutique@hotmail.com     Loan repayment             000000000000300000001MT200220170102202008092015SE00000415A12345/001/12       
D01141031162117080101Maisarah Binti Zulkifli                 480924085252,3      564212501111        00123456543PBB0233 myboutique@hotmail.com     Loan repayment             000000000000300000001MT200220170102202008092015SE00000415A12345/001/12       
D01141031162117080101Maisarah Binti Zulkifli                 480924085252,3      564212501111        00123456543PBB0233 myboutique@hotmail.com     Loan repayment             000000000000300000001MT200220170102202008092015SE00000415A12345/001/12       
D01141031162117080101Maisarah Binti Zulkifli                 480924085252,3      564212501111        00123456543PBB0233 myboutique@hotmail.com     Loan repayment             000000000000300000001MT200220170102202008092015SE00000415A12345/001/12       
D01141031162117080101Maisarah Binti Zulkifli                 480924085252,3      564212501111        00123456543PBB0233 myboutique@hotmail.com     Loan repayment             000000000000300000001MT200220170102202008092015SE00000415A12345/001/12       
D01141031162117080101Maisarah Binti Zulkifli                 480924085252,3      564212501111        00123456543PBB0233 myboutique@hotmail.com     Loan repayment             000000000000300000001MT200220170102202008092015SE00000415A12345/001/12       
D01141031162117080101Maisarah Binti Zulkifli                 480924085252,3      564212501111        00123456543PBB0233 myboutique@hotmail.com     Loan repayment             000000000000300000001MT200220170102202008092015SE00000415A12345/001/12       
D01141031162117080101Maisarah Binti Zulkifli                 480924085252,3      564212501111        00123456543PBB0233 myboutique@hotmail.com     Loan repayment             000000000000300000001MT200220170102202008092015SE00000415A12345/001/12       
D01141031162117080101Maisarah Binti Zulkifli                 480924085252,3      564212501111        00123456543PBB0233 myboutique@hotmail.com     Loan repayment             000000000000300000001MT200220170102202008092015SE00000415A12345/001/12       
D01141031162117080101Maisarah Binti Zulkifli                 480924085252,3      564212501111        00123456543PBB0233 myboutique@hotmail.com     Loan repayment             000000000000300000001MT200220170102202008092015SE00000415A12345/001/12       
D01141031162117080101Maisarah Binti Zulkifli                 480924085252,3      564212501111        00123456543PBB0233 myboutique@hotmail.com     Loan repayment             000000000000300000001MT200220170102202008092015SE00000415A12345/001/12       
D01141031162117080101Maisarah Binti Zulkifli                 480924085252,3      564212501111        00123456543PBB0233 myboutique@hotmail.com     Loan repayment             000000000000300000001MT200220170102202008092015SE00000415A12345/001/12       
D01141031162117080101Maisarah Binti Zulkifli                 480924085252,3      564212501111        00123456543PBB0233 myboutique@hotmail.com     Loan repayment             000000000000300000001MT200220170102202008092015SE00000415A12345/001/12       
D01141031162117080101Maisarah Binti Zulkifli                 480924085252,3      564212501111        00123456543PBB0233 myboutique@hotmail.com     Loan repayment             000000000000300000001MT200220170102202008092015SE00000415A12345/001/12       
D01141031162117080101Maisarah Binti Zulkifli                 480924085252,3      564212501111        00123456543PBB0233 myboutique@hotmail.com     Loan repayment             000000000000300000001MT200220170102202008092015SE00000415A12345/001/12       
D01141031162117080101Maisarah Binti Zulkifli                 480924085252,3      564212501111        00123456543PBB0233 myboutique@hotmail.com     Loan repayment             000000000000300000001MT200220170102202008092015SE00000415A12345/001/12       
D01141031162117080101Maisarah Binti Zulkifli                 480924085252,3      564212501111        00123456543PBB0233 myboutique@hotmail.com     Loan repayment             000000000000300000001MT200220170102202008092015SE00000415A12345/001/12       
D01141031162117080101Maisarah Binti Zulkifli                 480924085252,3      564212501111        00123456543PBB0233 myboutique@hotmail.com     Loan repayment             000000000000300000001MT200220170102202008092015SE00000415A12345/001/12       
D01141031162117080101Maisarah Binti Zulkifli                 480924085252,3      564212501111        00123456543PBB0233 myboutique@hotmail.com     Loan repayment             000000000000300000001MT200220170102202008092015SE00000415A12345/001/12       
D01141031162117080101Maisarah Binti Zulkifli                 480924085252,3      564212501111        00123456543PBB0233 myboutique@hotmail.com     Loan repayment             000000000000300000001MT200220170102202008092015SE00000415A12345/001/12       
D01141031162117080101Maisarah Binti Zulkifli                 480924085252,3      564212501111        00123456543PBB0233 myboutique@hotmail.com     Loan repayment             000000000000300000001MT200220170102202008092015SE00000415A12345/001/12       
D01141031162117080101Maisarah Binti Zulkifli                 480924085252,3      564212501111        00123456543PBB0233 myboutique@hotmail.com     Loan repayment             000000000000300000001MT200220170102202008092015SE00000415A12345/001/12       
D01141031162117080101Maisarah Binti Zulkifli                 480924085252,3      564212501111        00123456543PBB0233 myboutique@hotmail.com     Loan repayment             000000000000300000001MT200220170102202008092015SE00000415A12345/001/12       
D01141031162117080101Maisarah Binti Zulkifli                 480924085252,3      564212501111        00123456543PBB0233 myboutique@hotmail.com     Loan repayment             000000000000300000001MT200220170102202008092015SE00000415A12345/001/12       
D01141031162117080101Maisarah Binti Zulkifli                 480924085252,3      564212501111        00123456543PBB0233 myboutique@hotmail.com     Loan repayment             000000000000300000001MT200220170102202008092015SE00000415A12345/001/12       
D01141031162117080101Maisarah Binti Zulkifli                 480924085252,3      564212501111        00123456543PBB0233 myboutique@hotmail.com     Loan repayment             000000000000300000001MT200220170102202008092015SE00000415A12345/001/12       
D01141031162117080101Maisarah Binti Zulkifli                 480924085252,3      564212501111        00123456543PBB0233 myboutique@hotmail.com     Loan repayment             000000000000300000001MT200220170102202008092015SE00000415A12345/001/12       
D01141031162117080101Maisarah Binti Zulkifli                 480924085252,3      564212501111        00123456543PBB0233 myboutique@hotmail.com     Loan repayment             000000000000300000001MT200220170102202008092015SE00000415A12345/001/12       
D01141031162117080101Maisarah Binti Zulkifli                 480924085252,3      564212501111        00123456543PBB0233 myboutique@hotmail.com     Loan repayment             000000000000300000001MT200220170102202008092015SE00000415A12345/001/12       
D01141031162117080101Maisarah Binti Zulkifli                 480924085252,3      564212501111        00123456543PBB0233 myboutique@hotmail.com     Loan repayment             000000000000300000001MT200220170102202008092015SE00000415A12345/001/12       
D01141031162117080101Maisarah Binti Zulkifli                 480924085252,3      564212501111        00123456543PBB0233 myboutique@hotmail.com     Loan repayment             000000000000300000001MT200220170102202008092015SE00000415A12345/001/12       
D01141031162117080101Maisarah Binti Zulkifli                 480924085252,3      564212501111        00123456543PBB0233 myboutique@hotmail.com     Loan repayment             000000000000300000001MT200220170102202008092015SE00000415A12345/001/12       
D01141031162117080101Maisarah Binti Zulkifli                 480924085252,3      564212501111        00123456543PBB0233 myboutique@hotmail.com     Loan repayment             000000000000300000001MT200220170102202008092015SE00000415A12345/001/12       
D01141031162117080101Maisarah Binti Zulkifli                 480924085252,3      564212501111        00123456543PBB0233 myboutique@hotmail.com     Loan repayment             000000000000300000001MT200220170102202008092015SE00000415A12345/001/12       
D01141031162117080101Maisarah Binti Zulkifli                 480924085252,3      564212501111        00123456543PBB0233 myboutique@hotmail.com     Loan repayment             000000000000300000001MT200220170102202008092015SE00000415A12345/001/12       
D01141031162117080101Maisarah Binti Zulkifli                 480924085252,3      564212501111        00123456543PBB0233 myboutique@hotmail.com     Loan repayment             000000000000300000001MT200220170102202008092015SE00000415A12345/001/12       
D01141031162117080101Maisarah Binti Zulkifli                 480924085252,3      564212501111        00123456543PBB0233 myboutique@hotmail.com     Loan repayment             000000000000300000001MT200220170102202008092015SE00000415A12345/001/12       
D01141031162117080101Maisarah Binti Zulkifli                 480924085252,3      564212501111        00123456543PBB0233 myboutique@hotmail.com     Loan repayment             000000000000300000001MT200220170102202008092015SE00000415A12345/001/12       
D01141031162117080101Maisarah Binti Zulkifli                 480924085252,3      564212501111        00123456543PBB0233 myboutique@hotmail.com     Loan repayment             000000000000300000001MT200220170102202008092015SE00000415A12345/001/12       
D01141031162117080101Maisarah Binti Zulkifli                 480924085252,3      564212501111        00123456543PBB0233 myboutique@hotmail.com     Loan repayment             000000000000300000001MT200220170102202008092015SE00000415A12345/001/12       
D01141031162117080101Maisarah Binti Zulkifli                 480924085252,3      564212501111        00123456543PBB0233 myboutique@hotmail.com     Loan repayment             000000000000300000001MT200220170102202008092015SE00000415A12345/001/12       
D01141031162117080101Maisarah Binti Zulkifli                 480924085252,3      564212501111        00123456543PBB0233 myboutique@hotmail.com     Loan repayment             000000000000300000001MT200220170102202008092015SE00000415A12345/001/12       
D01141031162117080101Maisarah Binti Zulkifli                 480924085252,3      564212501111        00123456543PBB0233 myboutique@hotmail.com     Loan repayment             000000000000300000001MT200220170102202008092015SE00000415A12345/001/12       
D01141031162117080101Maisarah Binti Zulkifli                 480924085252,3      564212501111        00123456543PBB0233 myboutique@hotmail.com     Loan repayment             000000000000300000001MT200220170102202008092015SE00000415A12345/001/12       
D01141031162117080101Maisarah Binti Zulkifli                 480924085252,3      564212501111        00123456543PBB0233 myboutique@hotmail.com     Loan repayment             000000000000300000001MT200220170102202008092015SE00000415A12345/001/12       
D01141031162117080101Maisarah Binti Zulkifli                 480924085252,3      564212501111        00123456543PBB0233 myboutique@hotmail.com     Loan repayment             000000000000300000001MT200220170102202008092015SE00000415A12345/001/12       
D01141031162117080101Maisarah Binti Zulkifli                 480924085252,3      564212501111        00123456543PBB0233 myboutique@hotmail.com     Loan repayment             000000000000300000001MT200220170102202008092015SE00000415A12345/001/12       
D01141031162117080101Maisarah Binti Zulkifli                 480924085252,3      564212501111        00123456543PBB0233 myboutique@hotmail.com     Loan repayment             000000000000300000001MT200220170102202008092015SE00000415A12345/001/12       
D01141031162117080101Maisarah Binti Zulkifli                 480924085252,3      564212501111        00123456543PBB0233 myboutique@hotmail.com     Loan repayment             000000000000300000001MT200220170102202008092015SE00000415A12345/001/12       
D01141031162117080101Maisarah Binti Zulkifli                 480924085252,3      564212501111        00123456543PBB0233 myboutique@hotmail.com     Loan repayment             000000000000300000001MT200220170102202008092015SE00000415A12345/001/12       
D01141031162117080101Maisarah Binti Zulkifli                 480924085252,3      564212501111        00123456543PBB0233 myboutique@hotmail.com     Loan repayment             000000000000300000001MT200220170102202008092015SE00000415A12345/001/12       
D01141031162117080101Maisarah Binti Zulkifli                 480924085252,3      564212501111        00123456543PBB0233 myboutique@hotmail.com     Loan repayment             000000000000300000001MT200220170102202008092015SE00000415A12345/001/12       
D01141031162117080101Maisarah Binti Zulkifli                 480924085252,3      564212501111        00123456543PBB0233 myboutique@hotmail.com     Loan repayment             000000000000300000001MT200220170102202008092015SE00000415A12345/001/12       
D01141031162117080101Maisarah Binti Zulkifli                 480924085252,3      564212501111        00123456543PBB0233 myboutique@hotmail.com     Loan repayment             000000000000300000001MT200220170102202008092015SE00000415A12345/001/12       
D01141031162117080101Maisarah Binti Zulkifli                 480924085252,3      564212501111        00123456543PBB0233 myboutique@hotmail.com     Loan repayment             000000000000300000001MT200220170102202008092015SE00000415A12345/001/12       
D01141031162117080101Maisarah Binti Zulkifli                 480924085252,3      564212501111        00123456543PBB0233 myboutique@hotmail.com     Loan repayment             000000000000300000001MT200220170102202008092015SE00000415A12345/001/12       
D01141031162117080101Maisarah Binti Zulkifli                 480924085252,3      564212501111        00123456543PBB0233 myboutique@hotmail.com     Loan repayment             000000000000300000001MT200220170102202008092015SE00000415A12345/001/12       
D01141031162117080101Maisarah Binti Zulkifli                 480924085252,3      564212501111        00123456543PBB0233 myboutique@hotmail.com     Loan repayment             000000000000300000001MT200220170102202008092015SE00000415A12345/001/12       
D01141031162117080101Maisarah Binti Zulkifli                 480924085252,3      564212501111        00123456543PBB0233 myboutique@hotmail.com     Loan repayment             000000000000300000001MT200220170102202008092015SE00000415A12345/001/12       
D01141031162117080101Maisarah Binti Zulkifli                 480924085252,3      564212501111        00123456543PBB0233 myboutique@hotmail.com     Loan repayment             000000000000300000001MT200220170102202008092015SE00000415A12345/001/12       
D01141031162117080101Maisarah Binti Zulkifli                 480924085252,3      564212501111        00123456543PBB0233 myboutique@hotmail.com     Loan repayment             000000000000300000001MT200220170102202008092015SE00000415A12345/001/12       
D01141031162117080101Maisarah Binti Zulkifli                 480924085252,3      564212501111        00123456543PBB0233 myboutique@hotmail.com     Loan repayment             000000000000300000001MT200220170102202008092015SE00000415A12345/001/12       
D01141031162117080101Maisarah Binti Zulkifli                 480924085252,3      564212501111        00123456543PBB0233 myboutique@hotmail.com     Loan repayment             000000000000300000001MT200220170102202008092015SE00000415A12345/001/12       
D01141031162117080101Maisarah Binti Zulkifli                 480924085252,3      564212501111        00123456543PBB0233 myboutique@hotmail.com     Loan repayment             000000000000300000001MT200220170102202008092015SE00000415A12345/001/12       
D01141031162117080101Maisarah Binti Zulkifli                 480924085252,3      564212501111        00123456543PBB0233 myboutique@hotmail.com     Loan repayment             000000000000300000001MT200220170102202008092015SE00000415A12345/001/12       
D01141031162117080101Maisarah Binti Zulkifli                 480924085252,3      564212501111        00123456543PBB0233 myboutique@hotmail.com     Loan repayment             000000000000300000001MT200220170102202008092015SE00000415A12345/001/12       
D01141031162117080101Maisarah Binti Zulkifli                 480924085252,3      564212501111        00123456543PBB0233 myboutique@hotmail.com     Loan repayment             000000000000300000001MT200220170102202008092015SE00000415A12345/001/12       
D01141031162117080101Maisarah Binti Zulkifli                 480924085252,3      564212501111        00123456543PBB0233 myboutique@hotmail.com     Loan repayment             000000000000300000001MT200220170102202008092015SE00000415A12345/001/12       
D01141031162117080101Maisarah Binti Zulkifli                 480924085252,3      564212501111        00123456543PBB0233 myboutique@hotmail.com     Loan repayment             000000000000300000001MT200220170102202008092015SE00000415A12345/001/12       
D01141031162117080101Maisarah Binti Zulkifli                 480924085252,3      564212501111        00123456543PBB0233 myboutique@hotmail.com     Loan repayment             000000000000300000001MT200220170102202008092015SE00000415A12345/001/12       
D01141031162117080101Maisarah Binti Zulkifli                 480924085252,3      564212501111        00123456543PBB0233 myboutique@hotmail.com     Loan repayment             000000000000300000001MT200220170102202008092015SE00000415A12345/001/12       
D01141031162117080101Maisarah Binti Zulkifli                 480924085252,3      564212501111        00123456543PBB0233 myboutique@hotmail.com     Loan repayment             000000000000300000001MT200220170102202008092015SE00000415A12345/001/12       
D01141031162117080101Maisarah Binti Zulkifli                 480924085252,3      564212501111        00123456543PBB0233 myboutique@hotmail.com     Loan repayment             000000000000300000001MT200220170102202008092015SE00000415A12345/001/12       
D01141031162117080101Maisarah Binti Zulkifli                 480924085252,3      564212501111        00123456543PBB0233 myboutique@hotmail.com     Loan repayment             000000000000300000001MT200220170102202008092015SE00000415A12345/001/12       
D01141031162117080101Maisarah Binti Zulkifli                 480924085252,3      564212501111        00123456543PBB0233 myboutique@hotmail.com     Loan repayment             000000000000300000001MT200220170102202008092015SE00000415A12345/001/12       
D01141031162117080101Maisarah Binti Zulkifli                 480924085252,3      564212501111        00123456543PBB0233 myboutique@hotmail.com     Loan repayment             000000000000300000001MT200220170102202008092015SE00000415A12345/001/12       
D01141031162117080101Maisarah Binti Zulkifli                 480924085252,3      564212501111        00123456543PBB0233 myboutique@hotmail.com     Loan repayment             000000000000300000001MT200220170102202008092015SE00000415A12345/001/12       
D01141031162117080101Maisarah Binti Zulkifli                 480924085252,3      564212501111        00123456543PBB0233 myboutique@hotmail.com     Loan repayment             000000000000300000001MT200220170102202008092015SE00000415A12345/001/12       
D01141031162117080101Maisarah Binti Zulkifli                 480924085252,3      564212501111        00123456543PBB0233 myboutique@hotmail.com     Loan repayment             000000000000300000001MT200220170102202008092015SE00000415A12345/001/12       
D01141031162117080101Maisarah Binti Zulkifli                 480924085252,3      564212501111        00123456543PBB0233 myboutique@hotmail.com     Loan repayment             000000000000300000001MT200220170102202008092015SE00000415A12345/001/12       
D01141031162117080101Maisarah Binti Zulkifli                 480924085252,3      564212501111        00123456543PBB0233 myboutique@hotmail.com     Loan repayment             000000000000300000001MT200220170102202008092015SE00000415A12345/001/12       
D01141031162117080101Maisarah Binti Zulkifli                 480924085252,3      564212501111        00123456543PBB0233 myboutique@hotmail.com     Loan repayment             000000000000300000001MT200220170102202008092015SE00000415A12345/001/12       
D01141031162117080101Maisarah Binti Zulkifli                 480924085252,3      564212501111        00123456543PBB0233 myboutique@hotmail.com     Loan repayment             000000000000300000001MT200220170102202008092015SE00000415A12345/001/12       
D01141031162117080101Maisarah Binti Zulkifli                 480924085252,3      564212501111        00123456543PBB0233 myboutique@hotmail.com     Loan repayment             000000000000300000001MT200220170102202008092015SE00000415A12345/001/12       
D01141031162117080101Maisarah Binti Zulkifli                 480924085252,3      564212501111        00123456543PBB0233 myboutique@hotmail.com     Loan repayment             000000000000300000001MT200220170102202008092015SE00000415A12345/001/12       
D01141031162117080101Maisarah Binti Zulkifli                 480924085252,3      564212501111        00123456543PBB0233 myboutique@hotmail.com     Loan repayment             000000000000300000001MT200220170102202008092015SE00000415A12345/001/12       
D01141031162117080101Maisarah Binti Zulkifli                 480924085252,3      564212501111        00123456543PBB0233 myboutique@hotmail.com     Loan repayment             000000000000300000001MT200220170102202008092015SE00000415A12345/001/12       
D01141031162117080101Maisarah Binti Zulkifli                 480924085252,3      564212501111        00123456543PBB0233 myboutique@hotmail.com     Loan repayment             000000000000300000001MT200220170102202008092015SE00000415A12345/001/12       
D01141031162117080101Maisarah Binti Zulkifli                 480924085252,3      564212501111        00123456543PBB0233 myboutique@hotmail.com     Loan repayment             000000000000300000001MT200220170102202008092015SE00000415A12345/001/12       
D01141031162117080101Maisarah Binti Zulkifli                 480924085252,3      564212501111        00123456543PBB0233 myboutique@hotmail.com     Loan repayment             000000000000300000001MT200220170102202008092015SE00000415A12345/001/12       
D01141031162117080101Maisarah Binti Zulkifli                 480924085252,3      564212501111        00123456543PBB0233 myboutique@hotmail.com     Loan repayment             000000000000300000001MT200220170102202008092015SE00000415A12345/001/12       
D01141031162117080101Maisarah Binti Zulkifli                 480924085252,3      564212501111        00123456543PBB0233 myboutique@hotmail.com     Loan repayment             000000000000300000001MT200220170102202008092015SE00000415A12345/001/12       
D01141031162117080101Maisarah Binti Zulkifli                 480924085252,3      564212501111        00123456543PBB0233 myboutique@hotmail.com     Loan repayment             000000000000300000001MT200220170102202008092015SE00000415A12345/001/12       
D01141031162117080101Maisarah Binti Zulkifli                 480924085252,3      564212501111        00123456543PBB0233 myboutique@hotmail.com     Loan repayment             000000000000300000001MT200220170102202008092015SE00000415A12345/001/12       
D01141031162117080101Maisarah Binti Zulkifli                 480924085252,3      564212501111        00123456543PBB0233 myboutique@hotmail.com     Loan repayment             000000000000300000001MT200220170102202008092015SE00000415A12345/001/12       
D01141031162117080101Maisarah Binti Zulkifli                 480924085252,3      564212501111        00123456543PBB0233 myboutique@hotmail.com     Loan repayment             000000000000300000001MT200220170102202008092015SE00000415A12345/001/12       
D01141031162117080101Maisarah Binti Zulkifli                 480924085252,3      564212501111        00123456543PBB0233 myboutique@hotmail.com     Loan repayment             000000000000300000001MT200220170102202008092015SE00000415A12345/001/12       
D01141031162117080101Maisarah Binti Zulkifli                 480924085252,3      564212501111        00123456543PBB0233 myboutique@hotmail.com     Loan repayment             000000000000300000001MT200220170102202008092015SE00000415A12345/001/12       
D01141031162117080101Maisarah Binti Zulkifli                 480924085252,3      564212501111        00123456543PBB0233 myboutique@hotmail.com     Loan repayment             000000000000300000001MT200220170102202008092015SE00000415A12345/001/12       
D01141031162117080101Maisarah Binti Zulkifli                 480924085252,3      564212501111        00123456543PBB0233 myboutique@hotmail.com     Loan repayment             000000000000300000001MT200220170102202008092015SE00000415A12345/001/12       
D01141031162117080101Maisarah Binti Zulkifli                 480924085252,3      564212501111        00123456543PBB0233 myboutique@hotmail.com     Loan repayment             000000000000300000001MT200220170102202008092015SE00000415A12345/001/12       
D01141031162117080101Maisarah Binti Zulkifli                 480924085252,3      564212501111        00123456543PBB0233 myboutique@hotmail.com     Loan repayment             000000000000300000001MT200220170102202008092015SE00000415A12345/001/12       
D01141031162117080101Maisarah Binti Zulkifli                 480924085252,3      564212501111        00123456543PBB0233 myboutique@hotmail.com     Loan repayment             000000000000300000001MT200220170102202008092015SE00000415A12345/001/12       
D01141031162117080101Maisarah Binti Zulkifli                 480924085252,3      564212501111        00123456543PBB0233 myboutique@hotmail.com     Loan repayment             000000000000300000001MT200220170102202008092015SE00000415A12345/001/12       
D01141031162117080101Maisarah Binti Zulkifli                 480924085252,3      564212501111        00123456543PBB0233 myboutique@hotmail.com     Loan repayment             000000000000300000001MT200220170102202008092015SE00000415A12345/001/12       
D01141031162117080101Maisarah Binti Zulkifli                 480924085252,3      564212501111        00123456543PBB0233 myboutique@hotmail.com     Loan repayment             000000000000300000001MT200220170102202008092015SE00000415A12345/001/12       
D01141031162117080101Maisarah Binti Zulkifli                 480924085252,3      564212501111        00123456543PBB0233 myboutique@hotmail.com     Loan repayment             000000000000300000001MT200220170102202008092015SE00000415A12345/001/12       
D01141031162117080101Maisarah Binti Zulkifli                 480924085252,3      564212501111        00123456543PBB0233 myboutique@hotmail.com     Loan repayment             000000000000300000001MT200220170102202008092015SE00000415A12345/001/12       
D01141031162117080101Maisarah Binti Zulkifli                 480924085252,3      564212501111        00123456543PBB0233 myboutique@hotmail.com     Loan repayment             000000000000300000001MT200220170102202008092015SE00000415A12345/001/12       
D01141031162117080101Maisarah Binti Zulkifli                 480924085252,3      564212501111        00123456543PBB0233 myboutique@hotmail.com     Loan repayment             000000000000300000001MT200220170102202008092015SE00000415A12345/001/12       
D01141031162117080101Maisarah Binti Zulkifli                 480924085252,3      564212501111        00123456543PBB0233 myboutique@hotmail.com     Loan repayment             000000000000300000001MT200220170102202008092015SE00000415A12345/001/12       
D01141031162117080101Maisarah Binti Zulkifli                 480924085252,3      564212501111        00123456543PBB0233 myboutique@hotmail.com     Loan repayment             000000000000300000001MT200220170102202008092015SE00000415A12345/001/12       
D01141031162117080101Maisarah Binti Zulkifli                 480924085252,3      564212501111        00123456543PBB0233 myboutique@hotmail.com     Loan repayment             000000000000300000001MT200220170102202008092015SE00000415A12345/001/12       
D01141031162117080101Maisarah Binti Zulkifli                 480924085252,3      564212501111        00123456543PBB0233 myboutique@hotmail.com     Loan repayment             000000000000300000001MT200220170102202008092015SE00000415A12345/001/12       
D01141031162117080101Maisarah Binti Zulkifli                 480924085252,3      564212501111        00123456543PBB0233 myboutique@hotmail.com     Loan repayment             000000000000300000001MT200220170102202008092015SE00000415A12345/001/12       
D01141031162117080101Maisarah Binti Zulkifli                 480924085252,3      564212501111        00123456543PBB0233 myboutique@hotmail.com     Loan repayment             000000000000300000001MT200220170102202008092015SE00000415A12345/001/12       
D01141031162117080101Maisarah Binti Zulkifli                 480924085252,3      564212501111        00123456543PBB0233 myboutique@hotmail.com     Loan repayment             000000000000300000001MT200220170102202008092015SE00000415A12345/001/12       
D01141031162117080101Maisarah Binti Zulkifli                 480924085252,3      564212501111        00123456543PBB0233 myboutique@hotmail.com     Loan repayment             000000000000300000001MT200220170102202008092015SE00000415A12345/001/12       
D01141031162117080101Maisarah Binti Zulkifli                 480924085252,3      564212501111        00123456543PBB0233 myboutique@hotmail.com     Loan repayment             000000000000300000001MT200220170102202008092015SE00000415A12345/001/12       
D01141031162117080101Maisarah Binti Zulkifli                 480924085252,3      564212501111        00123456543PBB0233 myboutique@hotmail.com     Loan repayment             000000000000300000001MT200220170102202008092015SE00000415A12345/001/12       
D01141031162117080101Maisarah Binti Zulkifli                 480924085252,3      564212501111        00123456543PBB0233 myboutique@hotmail.com     Loan repayment             000000000000300000001MT200220170102202008092015SE00000415A12345/001/12       
D01141031162117080101Maisarah Binti Zulkifli                 480924085252,3      564212501111        00123456543PBB0233 myboutique@hotmail.com     Loan repayment             000000000000300000001MT200220170102202008092015SE00000415A12345/001/12       
D01141031162117080101Maisarah Binti Zulkifli                 480924085252,3      564212501111        00123456543PBB0233 myboutique@hotmail.com     Loan repayment             000000000000300000001MT200220170102202008092015SE00000415A12345/001/12       
D01141031162117080101Maisarah Binti Zulkifli                 480924085252,3      564212501111        00123456543PBB0233 myboutique@hotmail.com     Loan repayment             000000000000300000001MT200220170102202008092015SE00000415A12345/001/12       
D01141031162117080101Maisarah Binti Zulkifli                 480924085252,3      564212501111        00123456543PBB0233 myboutique@hotmail.com     Loan repayment             000000000000300000001MT200220170102202008092015SE00000415A12345/001/12       
D01141031162117080101Maisarah Binti Zulkifli                 480924085252,3      564212501111        00123456543PBB0233 myboutique@hotmail.com     Loan repayment             000000000000300000001MT200220170102202008092015SE00000415A12345/001/12       
D01141031162117080101Maisarah Binti Zulkifli                 480924085252,3      564212501111        00123456543PBB0233 myboutique@hotmail.com     Loan repayment             000000000000300000001MT200220170102202008092015SE00000415A12345/001/12       
D01141031162117080101Maisarah Binti Zulkifli                 480924085252,3      564212501111        00123456543PBB0233 myboutique@hotmail.com     Loan repayment             000000000000300000001MT200220170102202008092015SE00000415A12345/001/12       
D01141031162117080101Maisarah Binti Zulkifli                 480924085252,3      564212501111        00123456543PBB0233 myboutique@hotmail.com     Loan repayment             000000000000300000001MT200220170102202008092015SE00000415A12345/001/12       
D01141031162117080101Maisarah Binti Zulkifli                 480924085252,3      564212501111        00123456543PBB0233 myboutique@hotmail.com     Loan repayment             000000000000300000001MT200220170102202008092015SE00000415A12345/001/12       
D01141031162117080101Maisarah Binti Zulkifli                 480924085252,3      564212501111        00123456543PBB0233 myboutique@hotmail.com     Loan repayment             000000000000300000001MT200220170102202008092015SE00000415A12345/001/12       
D01141031162117080101Maisarah Binti Zulkifli                 480924085252,3      564212501111        00123456543PBB0233 myboutique@hotmail.com     Loan repayment             000000000000300000001MT200220170102202008092015SE00000415A12345/001/12       
D01141031162117080101Maisarah Binti Zulkifli                 480924085252,3      564212501111        00123456543PBB0233 myboutique@hotmail.com     Loan repayment             000000000000300000001MT200220170102202008092015SE00000415A12345/001/12       
D01141031162117080101Maisarah Binti Zulkifli                 480924085252,3      564212501111        00123456543PBB0233 myboutique@hotmail.com     Loan repayment             000000000000300000001MT200220170102202008092015SE00000415A12345/001/12       
D01141031162117080101Maisarah Binti Zulkifli                 480924085252,3      564212501111        00123456543PBB0233 myboutique@hotmail.com     Loan repayment             000000000000300000001MT200220170102202008092015SE00000415A12345/001/12       
D01141031162117080101Maisarah Binti Zulkifli                 480924085252,3      564212501111        00123456543PBB0233 myboutique@hotmail.com     Loan repayment             000000000000300000001MT200220170102202008092015SE00000415A12345/001/12       
D01141031162117080101Maisarah Binti Zulkifli                 480924085252,3      564212501111        00123456543PBB0233 myboutique@hotmail.com     Loan repayment             000000000000300000001MT200220170102202008092015SE00000415A12345/001/12       
D01141031162117080101Maisarah Binti Zulkifli                 480924085252,3      564212501111        00123456543PBB0233 myboutique@hotmail.com     Loan repayment             000000000000300000001MT200220170102202008092015SE00000415A12345/001/12       
D01141031162117080101Maisarah Binti Zulkifli                 480924085252,3      564212501111        00123456543PBB0233 myboutique@hotmail.com     Loan repayment             000000000000300000001MT200220170102202008092015SE00000415A12345/001/12       
D01141031162117080101Maisarah Binti Zulkifli                 480924085252,3      564212501111        00123456543PBB0233 myboutique@hotmail.com     Loan repayment             000000000000300000001MT200220170102202008092015SE00000415A12345/001/12       
D01141031162117080101Maisarah Binti Zulkifli                 480924085252,3      564212501111        00123456543PBB0233 myboutique@hotmail.com     Loan repayment             000000000000300000001MT200220170102202008092015SE00000415A12345/001/12       
D01141031162117080101Maisarah Binti Zulkifli                 480924085252,3      564212501111        00123456543PBB0233 myboutique@hotmail.com     Loan repayment             000000000000300000001MT200220170102202008092015SE00000415A12345/001/12       
D01141031162117080101Maisarah Binti Zulkifli                 480924085252,3      564212501111        00123456543PBB0233 myboutique@hotmail.com     Loan repayment             000000000000300000001MT200220170102202008092015SE00000415A12345/001/12       
D01141031162117080101Maisarah Binti Zulkifli                 480924085252,3      564212501111        00123456543PBB0233 myboutique@hotmail.com     Loan repayment             000000000000300000001MT200220170102202008092015SE00000415A12345/001/12       
D01141031162117080101Maisarah Binti Zulkifli                 480924085252,3      564212501111        00123456543PBB0233 myboutique@hotmail.com     Loan repayment             000000000000300000001MT200220170102202008092015SE00000415A12345/001/12       
D01141031162117080101Maisarah Binti Zulkifli                 480924085252,3      564212501111        00123456543PBB0233 myboutique@hotmail.com     Loan repayment             000000000000300000001MT200220170102202008092015SE00000415A12345/001/12       
D01141031162117080101Maisarah Binti Zulkifli                 480924085252,3      564212501111        00123456543PBB0233 myboutique@hotmail.com     Loan repayment             000000000000300000001MT200220170102202008092015SE00000415A12345/001/12       
D01141031162117080101Maisarah Binti Zulkifli                 480924085252,3      564212501111        00123456543PBB0233 myboutique@hotmail.com     Loan repayment             000000000000300000001MT200220170102202008092015SE00000415A12345/001/12       
D01141031162117080101Maisarah Binti Zulkifli                 480924085252,3      564212501111        00123456543PBB0233 myboutique@hotmail.com     Loan repayment             000000000000300000001MT200220170102202008092015SE00000415A12345/001/12       
D01141031162117080101Maisarah Binti Zulkifli                 480924085252,3      564212501111        00123456543PBB0233 myboutique@hotmail.com     Loan repayment             000000000000300000001MT200220170102202008092015SE00000415A12345/001/12       
D01141031162117080101Maisarah Binti Zulkifli                 480924085252,3      564212501111        00123456543PBB0233 myboutique@hotmail.com     Loan repayment             000000000000300000001MT200220170102202008092015SE00000415A12345/001/12       
D01141031162117080101Maisarah Binti Zulkifli                 480924085252,3      564212501111        00123456543PBB0233 myboutique@hotmail.com     Loan repayment             000000000000300000001MT200220170102202008092015SE00000415A12345/001/12       
D01141031162117080101Maisarah Binti Zulkifli                 480924085252,3      564212501111        00123456543PBB0233 myboutique@hotmail.com     Loan repayment             000000000000300000001MT200220170102202008092015SE00000415A12345/001/12       
D01141031162117080101Maisarah Binti Zulkifli                 480924085252,3      564212501111        00123456543PBB0233 myboutique@hotmail.com     Loan repayment             000000000000300000001MT200220170102202008092015SE00000415A12345/001/12       
D01141031162117080101Maisarah Binti Zulkifli                 480924085252,3      564212501111        00123456543PBB0233 myboutique@hotmail.com     Loan repayment             000000000000300000001MT200220170102202008092015SE00000415A12345/001/12       
D01141031162117080101Maisarah Binti Zulkifli                 480924085252,3      564212501111        00123456543PBB0233 myboutique@hotmail.com     Loan repayment             000000000000300000001MT200220170102202008092015SE00000415A12345/001/12       
D01141031162117080101Maisarah Binti Zulkifli                 480924085252,3      564212501111        00123456543PBB0233 myboutique@hotmail.com     Loan repayment             000000000000300000001MT200220170102202008092015SE00000415A12345/001/12       
D01141031162117080101Maisarah Binti Zulkifli                 480924085252,3      564212501111        00123456543PBB0233 myboutique@hotmail.com     Loan repayment             000000000000300000001MT200220170102202008092015SE00000415A12345/001/12       
D01141031162117080101Maisarah Binti Zulkifli                 480924085252,3      564212501111        00123456543PBB0233 myboutique@hotmail.com     Loan repayment             000000000000300000001MT200220170102202008092015SE00000415A12345/001/12       
D01141031162117080101Maisarah Binti Zulkifli                 480924085252,3      564212501111        00123456543PBB0233 myboutique@hotmail.com     Loan repayment             000000000000300000001MT200220170102202008092015SE00000415A12345/001/12       
D01141031162117080101Maisarah Binti Zulkifli                 480924085252,3      564212501111        00123456543PBB0233 myboutique@hotmail.com     Loan repayment             000000000000300000001MT200220170102202008092015SE00000415A12345/001/12       
D01141031162117080101Maisarah Binti Zulkifli                 480924085252,3      564212501111        00123456543PBB0233 myboutique@hotmail.com     Loan repayment             000000000000300000001MT200220170102202008092015SE00000415A12345/001/12       
D01141031162117080101Maisarah Binti Zulkifli                 480924085252,3      564212501111        00123456543PBB0233 myboutique@hotmail.com     Loan repayment             000000000000300000001MT200220170102202008092015SE00000415A12345/001/12       
D01141031162117080101Maisarah Binti Zulkifli                 480924085252,3      564212501111        00123456543PBB0233 myboutique@hotmail.com     Loan repayment             000000000000300000001MT200220170102202008092015SE00000415A12345/001/12       
D01141031162117080101Maisarah Binti Zulkifli                 480924085252,3      564212501111        00123456543PBB0233 myboutique@hotmail.com     Loan repayment             000000000000300000001MT200220170102202008092015SE00000415A12345/001/12       
D01141031162117080101Maisarah Binti Zulkifli                 480924085252,3      564212501111        00123456543PBB0233 myboutique@hotmail.com     Loan repayment             000000000000300000001MT200220170102202008092015SE00000415A12345/001/12       
D01141031162117080101Maisarah Binti Zulkifli                 480924085252,3      564212501111        00123456543PBB0233 myboutique@hotmail.com     Loan repayment             000000000000300000001MT200220170102202008092015SE00000415A12345/001/12       
D01141031162117080101Maisarah Binti Zulkifli                 480924085252,3      564212501111        00123456543PBB0233 myboutique@hotmail.com     Loan repayment             000000000000300000001MT200220170102202008092015SE00000415A12345/001/12       
D01141031162117080101Maisarah Binti Zulkifli                 480924085252,3      564212501111        00123456543PBB0233 myboutique@hotmail.com     Loan repayment             000000000000300000001MT200220170102202008092015SE00000415A12345/001/12       
D01141031162117080101Maisarah Binti Zulkifli                 480924085252,3      564212501111        00123456543PBB0233 myboutique@hotmail.com     Loan repayment             000000000000300000001MT200220170102202008092015SE00000415A12345/001/12       
D01141031162117080101Maisarah Binti Zulkifli                 480924085252,3      564212501111        00123456543PBB0233 myboutique@hotmail.com     Loan repayment             000000000000300000001MT200220170102202008092015SE00000415A12345/001/12       
D01141031162117080101Maisarah Binti Zulkifli                 480924085252,3      564212501111        00123456543PBB0233 myboutique@hotmail.com     Loan repayment             000000000000300000001MT200220170102202008092015SE00000415A12345/001/12       
D01141031162117080101Maisarah Binti Zulkifli                 480924085252,3      564212501111        00123456543PBB0233 myboutique@hotmail.com     Loan repayment             000000000000300000001MT200220170102202008092015SE00000415A12345/001/12       
D01141031162117080101Maisarah Binti Zulkifli                 480924085252,3      564212501111        00123456543PBB0233 myboutique@hotmail.com     Loan repayment             000000000000300000001MT200220170102202008092015SE00000415A12345/001/12       
D01141031162117080101Maisarah Binti Zulkifli                 480924085252,3      564212501111        00123456543PBB0233 myboutique@hotmail.com     Loan repayment             000000000000300000001MT200220170102202008092015SE00000415A12345/001/12       
D01141031162117080101Maisarah Binti Zulkifli                 480924085252,3      564212501111        00123456543PBB0233 myboutique@hotmail.com     Loan repayment             000000000000300000001MT200220170102202008092015SE00000415A12345/001/12       
D01141031162117080101Maisarah Binti Zulkifli                 480924085252,3      564212501111        00123456543PBB0233 myboutique@hotmail.com     Loan repayment             000000000000300000001MT200220170102202008092015SE00000415A12345/001/12       
D01141031162117080101Maisarah Binti Zulkifli                 480924085252,3      564212501111        00123456543PBB0233 myboutique@hotmail.com     Loan repayment             000000000000300000001MT200220170102202008092015SE00000415A12345/001/12       
D01141031162117080101Maisarah Binti Zulkifli                 480924085252,3      564212501111        00123456543PBB0233 myboutique@hotmail.com     Loan repayment             000000000000300000001MT200220170102202008092015SE00000415A12345/001/12       
D01141031162117080101Maisarah Binti Zulkifli                 480924085252,3      564212501111        00123456543PBB0233 myboutique@hotmail.com     Loan repayment             000000000000300000001MT200220170102202008092015SE00000415A12345/001/12       
D01141031162117080101Maisarah Binti Zulkifli                 480924085252,3      564212501111        00123456543PBB0233 myboutique@hotmail.com     Loan repayment             000000000000300000001MT200220170102202008092015SE00000415A12345/001/12       
D01141031162117080101Maisarah Binti Zulkifli                 480924085252,3      564212501111        00123456543PBB0233 myboutique@hotmail.com     Loan repayment             000000000000300000001MT200220170102202008092015SE00000415A12345/001/12       
D01141031162117080101Maisarah Binti Zulkifli                 480924085252,3      564212501111        00123456543PBB0233 myboutique@hotmail.com     Loan repayment             000000000000300000001MT200220170102202008092015SE00000415A12345/001/12       
D01141031162117080101Maisarah Binti Zulkifli                 480924085252,3      564212501111        00123456543PBB0233 myboutique@hotmail.com     Loan repayment             000000000000300000001MT200220170102202008092015SE00000415A12345/001/12       
D01141031162117080101Maisarah Binti Zulkifli                 480924085252,3      564212501111        00123456543PBB0233 myboutique@hotmail.com     Loan repayment             000000000000300000001MT200220170102202008092015SE00000415A12345/001/12       
D01141031162117080101Maisarah Binti Zulkifli                 480924085252,3      564212501111        00123456543PBB0233 myboutique@hotmail.com     Loan repayment             000000000000300000001MT200220170102202008092015SE00000415A12345/001/12       
D01141031162117080101Maisarah Binti Zulkifli                 480924085252,3      564212501111        00123456543PBB0233 myboutique@hotmail.com     Loan repayment             000000000000300000001MT200220170102202008092015SE00000415A12345/001/12       
D01141031162117080101Maisarah Binti Zulkifli                 480924085252,3      564212501111        00123456543PBB0233 myboutique@hotmail.com     Loan repayment             000000000000300000001MT200220170102202008092015SE00000415A12345/001/12       
D01141031162117080101Maisarah Binti Zulkifli                 480924085252,3      564212501111        00123456543PBB0233 myboutique@hotmail.com     Loan repayment             000000000000300000001MT200220170102202008092015SE00000415A12345/001/12       
D01141031162117080101Maisarah Binti Zulkifli                 480924085252,3      564212501111        00123456543PBB0233 myboutique@hotmail.com     Loan repayment             000000000000300000001MT200220170102202008092015SE00000415A12345/001/12       
D01141031162117080101Maisarah Binti Zulkifli                 480924085252,3      564212501111        00123456543PBB0233 myboutique@hotmail.com     Loan repayment             000000000000300000001MT200220170102202008092015SE00000415A12345/001/12       
D01141031162117080101Maisarah Binti Zulkifli                 480924085252,3      564212501111        00123456543PBB0233 myboutique@hotmail.com     Loan repayment             000000000000300000001MT200220170102202008092015SE00000415A12345/001/12       
D01141031162117080101Maisarah Binti Zulkifli                 480924085252,3      564212501111        00123456543PBB0233 myboutique@hotmail.com     Loan repayment             000000000000300000001MT200220170102202008092015SE00000415A12345/001/12       
D01141031162117080101Maisarah Binti Zulkifli                 480924085252,3      564212501111        00123456543PBB0233 myboutique@hotmail.com     Loan repayment             000000000000300000001MT200220170102202008092015SE00000415A12345/001/12       
D01141031162117080101Maisarah Binti Zulkifli                 480924085252,3      564212501111        00123456543PBB0233 myboutique@hotmail.com     Loan repayment             000000000000300000001MT200220170102202008092015SE00000415A12345/001/12       
D01141031162117080101Maisarah Binti Zulkifli                 480924085252,3      564212501111        00123456543PBB0233 myboutique@hotmail.com     Loan repayment             000000000000300000001MT200220170102202008092015SE00000415A12345/001/12       
D01141031162117080101Maisarah Binti Zulkifli                 480924085252,3      564212501111        00123456543PBB0233 myboutique@hotmail.com     Loan repayment             000000000000300000001MT200220170102202008092015SE00000415A12345/001/12       
D01141031162117080101Maisarah Binti Zulkifli                 480924085252,3      564212501111        00123456543PBB0233 myboutique@hotmail.com     Loan repayment             000000000000300000001MT200220170102202008092015SE00000415A12345/001/12       
D01141031162117080101Maisarah Binti Zulkifli                 480924085252,3      564212501111        00123456543PBB0233 myboutique@hotmail.com     Loan repayment             000000000000300000001MT200220170102202008092015SE00000415A12345/001/12       
D01141031162117080101Maisarah Binti Zulkifli                 480924085252,3      564212501111        00123456543PBB0233 myboutique@hotmail.com     Loan repayment             000000000000300000001MT200220170102202008092015SE00000415A12345/001/12       
D01141031162117080101Maisarah Binti Zulkifli                 480924085252,3      564212501111        00123456543PBB0233 myboutique@hotmail.com     Loan repayment             000000000000300000001MT200220170102202008092015SE00000415A12345/001/12       
D01141031162117080101Maisarah Binti Zulkifli                 480924085252,3      564212501111        00123456543PBB0233 myboutique@hotmail.com     Loan repayment             000000000000300000001MT200220170102202008092015SE00000415A12345/001/12       
D01141031162117080101Maisarah Binti Zulkifli                 480924085252,3      564212501111        00123456543PBB0233 myboutique@hotmail.com     Loan repayment             000000000000300000001MT200220170102202008092015SE00000415A12345/001/12       
D01141031162117080101Maisarah Binti Zulkifli                 480924085252,3      564212501111        00123456543PBB0233 myboutique@hotmail.com     Loan repayment             000000000000300000001MT200220170102202008092015SE00000415A12345/001/12       
D01141031162117080101Maisarah Binti Zulkifli                 480924085252,3      564212501111        00123456543PBB0233 myboutique@hotmail.com     Loan repayment             000000000000300000001MT200220170102202008092015SE00000415A12345/001/12       
D01141031162117080101Maisarah Binti Zulkifli                 480924085252,3      564212501111        00123456543PBB0233 myboutique@hotmail.com     Loan repayment             000000000000300000001MT200220170102202008092015SE00000415A12345/001/12       
D01141031162117080101Maisarah Binti Zulkifli                 480924085252,3      564212501111        00123456543PBB0233 myboutique@hotmail.com     Loan repayment             000000000000300000001MT200220170102202008092015SE00000415A12345/001/12       
D01141031162117080101Maisarah Binti Zulkifli                 480924085252,3      564212501111        00123456543PBB0233 myboutique@hotmail.com     Loan repayment             000000000000300000001MT200220170102202008092015SE00000415A12345/001/12       
D01141031162117080101Maisarah Binti Zulkifli                 480924085252,3      564212501111        00123456543PBB0233 myboutique@hotmail.com     Loan repayment             000000000000300000001MT200220170102202008092015SE00000415A12345/001/12       
D01141031162117080101Maisarah Binti Zulkifli                 480924085252,3      564212501111        00123456543PBB0233 myboutique@hotmail.com     Loan repayment             000000000000300000001MT200220170102202008092015SE00000415A12345/001/12       
D01141031162117080101Maisarah Binti Zulkifli                 480924085252,3      564212501111        00123456543PBB0233 myboutique@hotmail.com     Loan repayment             000000000000300000001MT200220170102202008092015SE00000415A12345/001/12       
D01141031162117080101Maisarah Binti Zulkifli                 480924085252,3      564212501111        00123456543PBB0233 myboutique@hotmail.com     Loan repayment             000000000000300000001MT200220170102202008092015SE00000415A12345/001/12       
D01141031162117080101Maisarah Binti Zulkifli                 480924085252,3      564212501111        00123456543PBB0233 myboutique@hotmail.com     Loan repayment             000000000000300000001MT200220170102202008092015SE00000415A12345/001/12       
D01141031162117080101Maisarah Binti Zulkifli                 480924085252,3      564212501111        00123456543PBB0233 myboutique@hotmail.com     Loan repayment             000000000000300000001MT200220170102202008092015SE00000415A12345/001/12       
D01141031162117080101Maisarah Binti Zulkifli                 480924085252,3      564212501111        00123456543PBB0233 myboutique@hotmail.com     Loan repayment             000000000000300000001MT200220170102202008092015SE00000415A12345/001/12       
D01141031162117080101Maisarah Binti Zulkifli                 480924085252,3      564212501111        00123456543PBB0233 myboutique@hotmail.com     Loan repayment             000000000000300000001MT200220170102202008092015SE00000415A12345/001/12       
D01141031162117080101Maisarah Binti Zulkifli                 480924085252,3      564212501111        00123456543PBB0233 myboutique@hotmail.com     Loan repayment             000000000000300000001MT200220170102202008092015SE00000415A12345/001/12       
D01141031162117080101Maisarah Binti Zulkifli                 480924085252,3      564212501111        00123456543PBB0233 myboutique@hotmail.com     Loan repayment             000000000000300000001MT200220170102202008092015SE00000415A12345/001/12       
D01141031162117080101Maisarah Binti Zulkifli                 480924085252,3      564212501111        00123456543PBB0233 myboutique@hotmail.com     Loan repayment             000000000000300000001MT200220170102202008092015SE00000415A12345/001/12       
D01141031162117080101Maisarah Binti Zulkifli                 480924085252,3      564212501111        00123456543PBB0233 myboutique@hotmail.com     Loan repayment             000000000000300000001MT200220170102202008092015SE00000415A12345/001/12       
D01141031162117080101Maisarah Binti Zulkifli                 480924085252,3      564212501111        00123456543PBB0233 myboutique@hotmail.com     Loan repayment             000000000000300000001MT200220170102202008092015SE00000415A12345/001/12       
D01141031162117080101Maisarah Binti Zulkifli                 480924085252,3      564212501111        00123456543PBB0233 myboutique@hotmail.com     Loan repayment             000000000000300000001MT200220170102202008092015SE00000415A12345/001/12       
D01141031162117080101Maisarah Binti Zulkifli                 480924085252,3      564212501111        00123456543PBB0233 myboutique@hotmail.com     Loan repayment             000000000000300000001MT200220170102202008092015SE00000415A12345/001/12       
D01141031162117080101Maisarah Binti Zulkifli                 480924085252,3      564212501111        00123456543PBB0233 myboutique@hotmail.com     Loan repayment             000000000000300000001MT200220170102202008092015SE00000415A12345/001/12       
D01141031162117080101Maisarah Binti Zulkifli                 480924085252,3      564212501111        00123456543PBB0233 myboutique@hotmail.com     Loan repayment             000000000000300000001MT200220170102202008092015SE00000415A12345/001/12       
D01141031162117080101Maisarah Binti Zulkifli                 480924085252,3      564212501111        00123456543PBB0233 myboutique@hotmail.com     Loan repayment             000000000000300000001MT200220170102202008092015SE00000415A12345/001/12       
D01141031162117080101Maisarah Binti Zulkifli                 480924085252,3      564212501111        00123456543PBB0233 myboutique@hotmail.com     Loan repayment             000000000000300000001MT200220170102202008092015SE00000415A12345/001/12       
D01141031162117080101Maisarah Binti Zulkifli                 480924085252,3      564212501111        00123456543PBB0233 myboutique@hotmail.com     Loan repayment             000000000000300000001MT200220170102202008092015SE00000415A12345/001/12       
D01141031162117080101Maisarah Binti Zulkifli                 480924085252,3      564212501111        00123456543PBB0233 myboutique@hotmail.com     Loan repayment             000000000000300000001MT200220170102202008092015SE00000415A12345/001/12       
D01141031162117080101Maisarah Binti Zulkifli                 480924085252,3      564212501111        00123456543PBB0233 myboutique@hotmail.com     Loan repayment             000000000000300000001MT200220170102202008092015SE00000415A12345/001/12       
D01141031162117080101Maisarah Binti Zulkifli                 480924085252,3      564212501111        00123456543PBB0233 myboutique@hotmail.com     Loan repayment             000000000000300000001MT200220170102202008092015SE00000415A12345/001/12       
D01141031162117080101Maisarah Binti Zulkifli                 480924085252,3      564212501111        00123456543PBB0233 myboutique@hotmail.com     Loan repayment             000000000000300000001MT200220170102202008092015SE00000415A12345/001/12       
D01141031162117080101Maisarah Binti Zulkifli                 480924085252,3      564212501111        00123456543PBB0233 myboutique@hotmail.com     Loan repayment             000000000000300000001MT200220170102202008092015SE00000415A12345/001/12       
D01141031162117080101Maisarah Binti Zulkifli                 480924085252,3      564212501111        00123456543PBB0233 myboutique@hotmail.com     Loan repayment             000000000000300000001MT200220170102202008092015SE00000415A12345/001/12       
D01141031162117080101Maisarah Binti Zulkifli                 480924085252,3      564212501111        00123456543PBB0233 myboutique@hotmail.com     Loan repayment             000000000000300000001MT200220170102202008092015SE00000415A12345/001/12       
D01141031162117080101Maisarah Binti Zulkifli                 480924085252,3      564212501111        00123456543PBB0233 myboutique@hotmail.com     Loan repayment             000000000000300000001MT200220170102202008092015SE00000415A12345/001/12       
D01141031162117080101Maisarah Binti Zulkifli                 480924085252,3      564212501111        00123456543PBB0233 myboutique@hotmail.com     Loan repayment             000000000000300000001MT200220170102202008092015SE00000415A12345/001/12       
D01141031162117080101Maisarah Binti Zulkifli                 480924085252,3      564212501111        00123456543PBB0233 myboutique@hotmail.com     Loan repayment             000000000000300000001MT200220170102202008092015SE00000415A12345/001/12       
D01141031162117080101Maisarah Binti Zulkifli                 480924085252,3      564212501111        00123456543PBB0233 myboutique@hotmail.com     Loan repayment             000000000000300000001MT200220170102202008092015SE00000415A12345/001/12       
D01141031162117080101Maisarah Binti Zulkifli                 480924085252,3      564212501111        00123456543PBB0233 myboutique@hotmail.com     Loan repayment             000000000000300000001MT200220170102202008092015SE00000415A12345/001/12       
D01141031162117080101Maisarah Binti Zulkifli                 480924085252,3      564212501111        00123456543PBB0233 myboutique@hotmail.com     Loan repayment             000000000000300000001MT200220170102202008092015SE00000415A12345/001/12       
D01141031162117080101Maisarah Binti Zulkifli                 480924085252,3      564212501111        00123456543PBB0233 myboutique@hotmail.com     Loan repayment             000000000000300000001MT200220170102202008092015SE00000415A12345/001/12       
D01141031162117080101Maisarah Binti Zulkifli                 480924085252,3      564212501111        00123456543PBB0233 myboutique@hotmail.com     Loan repayment             000000000000300000001MT200220170102202008092015SE00000415A12345/001/12       
D01141031162117080101Maisarah Binti Zulkifli                 480924085252,3      564212501111        00123456543PBB0233 myboutique@hotmail.com     Loan repayment             000000000000300000001MT200220170102202008092015SE00000415A12345/001/12       
D01141031162117080101Maisarah Binti Zulkifli                 480924085252,3      564212501111        00123456543PBB0233 myboutique@hotmail.com     Loan repayment             000000000000300000001MT200220170102202008092015SE00000415A12345/001/12       
D01141031162117080101Maisarah Binti Zulkifli                 480924085252,3      564212501111        00123456543PBB0233 myboutique@hotmail.com     Loan repayment             000000000000300000001MT200220170102202008092015SE00000415A12345/001/12       
D01141031162117080101Maisarah Binti Zulkifli                 480924085252,3      564212501111        00123456543PBB0233 myboutique@hotmail.com     Loan repayment             000000000000300000001MT200220170102202008092015SE00000415A12345/001/12       
D01141031162117080101Maisarah Binti Zulkifli                 480924085252,3      564212501111        00123456543PBB0233 myboutique@hotmail.com     Loan repayment             000000000000300000001MT200220170102202008092015SE00000415A12345/001/12       
D01141031162117080101Maisarah Binti Zulkifli                 480924085252,3      564212501111        00123456543PBB0233 myboutique@hotmail.com     Loan repayment             000000000000300000001MT200220170102202008092015SE00000415A12345/001/12       
D01141031162117080101Maisarah Binti Zulkifli                 480924085252,3      564212501111        00123456543PBB0233 myboutique@hotmail.com     Loan repayment             000000000000300000001MT200220170102202008092015SE00000415A12345/001/12       
D01141031162117080101Maisarah Binti Zulkifli                 480924085252,3      564212501111        00123456543PBB0233 myboutique@hotmail.com     Loan repayment             000000000000300000001MT200220170102202008092015SE00000415A12345/001/12       
D01141031162117080101Maisarah Binti Zulkifli                 480924085252,3      564212501111        00123456543PBB0233 myboutique@hotmail.com     Loan repayment             000000000000300000001MT200220170102202008092015SE00000415A12345/001/12       
D01141031162117080101Maisarah Binti Zulkifli                 480924085252,3      564212501111        00123456543PBB0233 myboutique@hotmail.com     Loan repayment             000000000000300000001MT200220170102202008092015SE00000415A12345/001/12       
D01141031162117080101Maisarah Binti Zulkifli                 480924085252,3      564212501111        00123456543PBB0233 myboutique@hotmail.com     Loan repayment             000000000000300000001MT200220170102202008092015SE00000415A12345/001/12       
D01141031162117080101Maisarah Binti Zulkifli                 480924085252,3      564212501111        00123456543PBB0233 myboutique@hotmail.com     Loan repayment             000000000000300000001MT200220170102202008092015SE00000415A12345/001/12       
D01141031162117080101Maisarah Binti Zulkifli                 480924085252,3      564212501111        00123456543PBB0233 myboutique@hotmail.com     Loan repayment             000000000000300000001MT200220170102202008092015SE00000415A12345/001/12       
D01141031162117080101Maisarah Binti Zulkifli                 480924085252,3      564212501111        00123456543PBB0233 myboutique@hotmail.com     Loan repayment             000000000000300000001MT200220170102202008092015SE00000415A12345/001/12       
D01141031162117080101Maisarah Binti Zulkifli                 480924085252,3      564212501111        00123456543PBB0233 myboutique@hotmail.com     Loan repayment             000000000000300000001MT200220170102202008092015SE00000415A12345/001/12       
D01141031162117080101Maisarah Binti Zulkifli                 480924085252,3      564212501111        00123456543PBB0233 myboutique@hotmail.com     Loan repayment             000000000000300000001MT200220170102202008092015SE00000415A12345/001/12       
D01141031162117080101Maisarah Binti Zulkifli                 480924085252,3      564212501111        00123456543PBB0233 myboutique@hotmail.com     Loan repayment             000000000000300000001MT200220170102202008092015SE00000415A12345/001/12       
D01141031162117080101Maisarah Binti Zulkifli                 480924085252,3      564212501111        00123456543PBB0233 myboutique@hotmail.com     Loan repayment             000000000000300000001MT200220170102202008092015SE00000415A12345/001/12       
D01141031162117080101Maisarah Binti Zulkifli                 480924085252,3      564212501111        00123456543PBB0233 myboutique@hotmail.com     Loan repayment             000000000000300000001MT200220170102202008092015SE00000415A12345/001/12       
D01141031162117080101Maisarah Binti Zulkifli                 480924085252,3      564212501111        00123456543PBB0233 myboutique@hotmail.com     Loan repayment             000000000000300000001MT200220170102202008092015SE00000415A12345/001/12       
D01141031162117080101Maisarah Binti Zulkifli                 480924085252,3      564212501111        00123456543PBB0233 myboutique@hotmail.com     Loan repayment             000000000000300000001MT200220170102202008092015SE00000415A12345/001/12       
D01141031162117080101Maisarah Binti Zulkifli                 480924085252,3      564212501111        00123456543PBB0233 myboutique@hotmail.com     Loan repayment             000000000000300000001MT200220170102202008092015SE00000415A12345/001/12       
